{
	"contracts/FundME.sol": {
		"FundMe": {
			"abi": [
				{
					"inputs": [],
					"stateMutability": "nonpayable",
					"type": "constructor"
				},
				{
					"inputs": [
						{
							"internalType": "address",
							"name": "",
							"type": "address"
						}
					],
					"name": "addressToAmountFunded",
					"outputs": [
						{
							"internalType": "uint256",
							"name": "",
							"type": "uint256"
						}
					],
					"stateMutability": "view",
					"type": "function"
				},
				{
					"inputs": [],
					"name": "fund",
					"outputs": [],
					"stateMutability": "payable",
					"type": "function"
				},
				{
					"inputs": [
						{
							"internalType": "uint256",
							"name": "",
							"type": "uint256"
						}
					],
					"name": "funders",
					"outputs": [
						{
							"internalType": "address",
							"name": "",
							"type": "address"
						}
					],
					"stateMutability": "view",
					"type": "function"
				},
				{
					"inputs": [],
					"name": "minimumUSD",
					"outputs": [
						{
							"internalType": "uint256",
							"name": "",
							"type": "uint256"
						}
					],
					"stateMutability": "view",
					"type": "function"
				},
				{
					"inputs": [],
					"name": "owner",
					"outputs": [
						{
							"internalType": "address",
							"name": "",
							"type": "address"
						}
					],
					"stateMutability": "view",
					"type": "function"
				},
				{
					"inputs": [],
					"name": "withdraw",
					"outputs": [],
					"stateMutability": "nonpayable",
					"type": "function"
				}
			],
			"devdoc": {
				"kind": "dev",
				"methods": {},
				"version": 1
			},
			"evm": {
				"assembly": "    /* \"contracts/FundME.sol\":223:3894  contract FundMe {... */\n  mstore(0x40, 0x80)\n    /* \"contracts/FundME.sol\":317:326  50 * 1e18 */\n  0x02b5e3af16b1880000\n    /* \"contracts/FundME.sol\":289:326  uint256 public minimumUSD = 50 * 1e18 */\n  0x00\n  sstore\n    /* \"contracts/FundME.sol\":699:751  constructor(){... */\n  callvalue\n  dup1\n  iszero\n  tag_1\n  jumpi\n  0x00\n  dup1\n  revert\ntag_1:\n  pop\n    /* \"contracts/FundME.sol\":731:741  msg.sender */\n  caller\n    /* \"contracts/FundME.sol\":723:728  owner */\n  0x03\n  0x00\n    /* \"contracts/FundME.sol\":723:741  owner = msg.sender */\n  0x0100\n  exp\n  dup2\n  sload\n  dup2\n  0xffffffffffffffffffffffffffffffffffffffff\n  mul\n  not\n  and\n  swap1\n  dup4\n  0xffffffffffffffffffffffffffffffffffffffff\n  and\n  mul\n  or\n  swap1\n  sstore\n  pop\n    /* \"contracts/FundME.sol\":223:3894  contract FundMe {... */\n  dataSize(sub_0)\n  dup1\n  dataOffset(sub_0)\n  0x00\n  codecopy\n  0x00\n  return\nstop\n\nsub_0: assembly {\n        /* \"contracts/FundME.sol\":223:3894  contract FundMe {... */\n      mstore(0x40, 0x80)\n      jumpi(tag_1, lt(calldatasize, 0x04))\n      shr(0xe0, calldataload(0x00))\n      dup1\n      0x3430a88c\n      eq\n      tag_2\n      jumpi\n      dup1\n      0x3ccfd60b\n      eq\n      tag_3\n      jumpi\n      dup1\n      0x3e47d6f3\n      eq\n      tag_4\n      jumpi\n      dup1\n      0x8da5cb5b\n      eq\n      tag_5\n      jumpi\n      dup1\n      0xb60d4288\n      eq\n      tag_6\n      jumpi\n      dup1\n      0xdc0d3dff\n      eq\n      tag_7\n      jumpi\n    tag_1:\n      0x00\n      dup1\n      revert\n        /* \"contracts/FundME.sol\":289:326  uint256 public minimumUSD = 50 * 1e18 */\n    tag_2:\n      callvalue\n      dup1\n      iszero\n      tag_8\n      jumpi\n      0x00\n      dup1\n      revert\n    tag_8:\n      pop\n      tag_9\n      tag_10\n      jump\t// in\n    tag_9:\n      mload(0x40)\n      tag_11\n      swap2\n      swap1\n      tag_12\n      jump\t// in\n    tag_11:\n      mload(0x40)\n      dup1\n      swap2\n      sub\n      swap1\n      return\n        /* \"contracts/FundME.sol\":2019:3584  function withdraw() public onlyOwner{ //Due to the modifier, it will do whatever is in the modifier first before it executes the function... */\n    tag_3:\n      callvalue\n      dup1\n      iszero\n      tag_13\n      jumpi\n      0x00\n      dup1\n      revert\n    tag_13:\n      pop\n      tag_14\n      tag_15\n      jump\t// in\n    tag_14:\n      stop\n        /* \"contracts/FundME.sol\":477:533  mapping(address => uint256) public addressToAmountFunded */\n    tag_4:\n      callvalue\n      dup1\n      iszero\n      tag_16\n      jumpi\n      0x00\n      dup1\n      revert\n    tag_16:\n      pop\n      tag_17\n      0x04\n      dup1\n      calldatasize\n      sub\n      dup2\n      add\n      swap1\n      tag_18\n      swap2\n      swap1\n      tag_19\n      jump\t// in\n    tag_18:\n      tag_20\n      jump\t// in\n    tag_17:\n      mload(0x40)\n      tag_21\n      swap2\n      swap1\n      tag_12\n      jump\t// in\n    tag_21:\n      mload(0x40)\n      dup1\n      swap2\n      sub\n      swap1\n      return\n        /* \"contracts/FundME.sol\":586:606  address public owner */\n    tag_5:\n      callvalue\n      dup1\n      iszero\n      tag_22\n      jumpi\n      0x00\n      dup1\n      revert\n    tag_22:\n      pop\n      tag_23\n      tag_24\n      jump\t// in\n    tag_23:\n      mload(0x40)\n      tag_25\n      swap2\n      swap1\n      tag_26\n      jump\t// in\n    tag_25:\n      mload(0x40)\n      dup1\n      swap2\n      sub\n      swap1\n      return\n        /* \"contracts/FundME.sol\":759:1941  function fund() public payable {... */\n    tag_6:\n      tag_27\n      tag_28\n      jump\t// in\n    tag_27:\n      stop\n        /* \"contracts/FundME.sol\":376:401  address [] public funders */\n    tag_7:\n      callvalue\n      dup1\n      iszero\n      tag_29\n      jumpi\n      0x00\n      dup1\n      revert\n    tag_29:\n      pop\n      tag_30\n      0x04\n      dup1\n      calldatasize\n      sub\n      dup2\n      add\n      swap1\n      tag_31\n      swap2\n      swap1\n      tag_32\n      jump\t// in\n    tag_31:\n      tag_33\n      jump\t// in\n    tag_30:\n      mload(0x40)\n      tag_34\n      swap2\n      swap1\n      tag_26\n      jump\t// in\n    tag_34:\n      mload(0x40)\n      dup1\n      swap2\n      sub\n      swap1\n      return\n        /* \"contracts/FundME.sol\":289:326  uint256 public minimumUSD = 50 * 1e18 */\n    tag_10:\n      sload(0x00)\n      dup2\n      jump\t// out\n        /* \"contracts/FundME.sol\":2019:3584  function withdraw() public onlyOwner{ //Due to the modifier, it will do whatever is in the modifier first before it executes the function... */\n    tag_15:\n        /* \"contracts/FundME.sol\":3751:3756  owner */\n      0x03\n      0x00\n      swap1\n      sload\n      swap1\n      0x0100\n      exp\n      swap1\n      div\n      0xffffffffffffffffffffffffffffffffffffffff\n      and\n        /* \"contracts/FundME.sol\":3737:3756  msg.sender == owner */\n      0xffffffffffffffffffffffffffffffffffffffff\n      and\n        /* \"contracts/FundME.sol\":3737:3747  msg.sender */\n      caller\n        /* \"contracts/FundME.sol\":3737:3756  msg.sender == owner */\n      0xffffffffffffffffffffffffffffffffffffffff\n      and\n      eq\n        /* \"contracts/FundME.sol\":3729:3781  require(msg.sender == owner, \"Sender is not Owner!\") */\n      tag_36\n      jumpi\n      mload(0x40)\n      0x08c379a000000000000000000000000000000000000000000000000000000000\n      dup2\n      mstore\n      0x04\n      add\n      tag_37\n      swap1\n      tag_38\n      jump\t// in\n    tag_37:\n      mload(0x40)\n      dup1\n      swap2\n      sub\n      swap1\n      revert\n    tag_36:\n        /* \"contracts/FundME.sol\":2282:2301  uint256 funderIndex */\n      0x00\n        /* \"contracts/FundME.sol\":2278:2652  for(uint256 funderIndex = 0; funderIndex > funders.length; funderIndex++){... */\n    tag_40:\n        /* \"contracts/FundME.sol\":2321:2328  funders */\n      0x01\n        /* \"contracts/FundME.sol\":2321:2335  funders.length */\n      dup1\n      sload\n      swap1\n      pop\n        /* \"contracts/FundME.sol\":2307:2318  funderIndex */\n      dup2\n        /* \"contracts/FundME.sol\":2307:2335  funderIndex > funders.length */\n      gt\n        /* \"contracts/FundME.sol\":2278:2652  for(uint256 funderIndex = 0; funderIndex > funders.length; funderIndex++){... */\n      iszero\n      tag_41\n      jumpi\n        /* \"contracts/FundME.sol\":2366:2380  address funder */\n      0x00\n        /* \"contracts/FundME.sol\":2383:2390  funders */\n      0x01\n        /* \"contracts/FundME.sol\":2391:2402  funderIndex */\n      dup3\n        /* \"contracts/FundME.sol\":2383:2403  funders[funderIndex] */\n      dup2\n      sload\n      dup2\n      lt\n      tag_43\n      jumpi\n      tag_44\n      tag_45\n      jump\t// in\n    tag_44:\n    tag_43:\n      swap1\n      0x00\n      mstore\n      keccak256(0x00, 0x20)\n      add\n      0x00\n      swap1\n      sload\n      swap1\n      0x0100\n      exp\n      swap1\n      div\n      0xffffffffffffffffffffffffffffffffffffffff\n      and\n        /* \"contracts/FundME.sol\":2366:2403  address funder = funders[funderIndex] */\n      swap1\n      pop\n        /* \"contracts/FundME.sol\":2598:2599  0 */\n      0x00\n        /* \"contracts/FundME.sol\":2566:2587  addressToAmountFunded */\n      0x02\n        /* \"contracts/FundME.sol\":2566:2595  addressToAmountFunded[funder] */\n      0x00\n        /* \"contracts/FundME.sol\":2588:2594  funder */\n      dup4\n        /* \"contracts/FundME.sol\":2566:2595  addressToAmountFunded[funder] */\n      0xffffffffffffffffffffffffffffffffffffffff\n      and\n      0xffffffffffffffffffffffffffffffffffffffff\n      and\n      dup2\n      mstore\n      0x20\n      add\n      swap1\n      dup2\n      mstore\n      0x20\n      add\n      0x00\n      keccak256\n        /* \"contracts/FundME.sol\":2566:2599  addressToAmountFunded[funder] = 0 */\n      dup2\n      swap1\n      sstore\n      pop\n        /* \"contracts/FundME.sol\":2351:2652  {... */\n      pop\n        /* \"contracts/FundME.sol\":2337:2350  funderIndex++ */\n      dup1\n      dup1\n      tag_47\n      swap1\n      tag_48\n      jump\t// in\n    tag_47:\n      swap2\n      pop\n      pop\n        /* \"contracts/FundME.sol\":2278:2652  for(uint256 funderIndex = 0; funderIndex > funders.length; funderIndex++){... */\n      jump(tag_40)\n    tag_41:\n      pop\n        /* \"contracts/FundME.sol\":2728:2729  0 */\n      0x00\n        /* \"contracts/FundME.sol\":2714:2730  new address[](0) */\n      0xffffffffffffffff\n      dup2\n      gt\n      iszero\n      tag_49\n      jumpi\n      tag_50\n      tag_51\n      jump\t// in\n    tag_50:\n    tag_49:\n      mload(0x40)\n      swap1\n      dup1\n      dup3\n      mstore\n      dup1\n      0x20\n      mul\n      0x20\n      add\n      dup3\n      add\n      0x40\n      mstore\n      dup1\n      iszero\n      tag_52\n      jumpi\n      dup2\n      0x20\n      add\n      0x20\n      dup3\n      mul\n      dup1\n      calldatasize\n      dup4\n      calldatacopy\n      dup1\n      dup3\n      add\n      swap2\n      pop\n      pop\n      swap1\n      pop\n    tag_52:\n      pop\n        /* \"contracts/FundME.sol\":2704:2711  funders */\n      0x01\n        /* \"contracts/FundME.sol\":2704:2730  funders = new address[](0) */\n      swap1\n      dup1\n      mload\n      swap1\n      0x20\n      add\n      swap1\n      tag_53\n      swap3\n      swap2\n      swap1\n      tag_54\n      jump\t// in\n    tag_53:\n      pop\n        /* \"contracts/FundME.sol\":3450:3465  bool callSucess */\n      0x00\n        /* \"contracts/FundME.sol\":3478:3488  msg.sender */\n      caller\n        /* \"contracts/FundME.sol\":3470:3494  payable(msg.sender).call */\n      0xffffffffffffffffffffffffffffffffffffffff\n      and\n        /* \"contracts/FundME.sol\":3502:3523  address(this).balance */\n      selfbalance\n        /* \"contracts/FundME.sol\":3470:3528  payable(msg.sender).call{value: address(this).balance}(\"\") */\n      mload(0x40)\n      tag_55\n      swap1\n      tag_56\n      jump\t// in\n    tag_55:\n      0x00\n      mload(0x40)\n      dup1\n      dup4\n      sub\n      dup2\n      dup6\n      dup8\n      gas\n      call\n      swap3\n      pop\n      pop\n      pop\n      returndatasize\n      dup1\n      0x00\n      dup2\n      eq\n      tag_59\n      jumpi\n      mload(0x40)\n      swap2\n      pop\n      and(add(returndatasize, 0x3f), not(0x1f))\n      dup3\n      add\n      0x40\n      mstore\n      returndatasize\n      dup3\n      mstore\n      returndatasize\n      0x00\n      0x20\n      dup5\n      add\n      returndatacopy\n      jump(tag_58)\n    tag_59:\n      0x60\n      swap2\n      pop\n    tag_58:\n      pop\n        /* \"contracts/FundME.sol\":3449:3528  (bool callSucess,) = payable(msg.sender).call{value: address(this).balance}(\"\") */\n      pop\n      swap1\n      pop\n        /* \"contracts/FundME.sol\":3548:3558  callSucess */\n      dup1\n        /* \"contracts/FundME.sol\":3539:3574  require (callSucess, \"Call Failed\") */\n      tag_60\n      jumpi\n      mload(0x40)\n      0x08c379a000000000000000000000000000000000000000000000000000000000\n      dup2\n      mstore\n      0x04\n      add\n      tag_61\n      swap1\n      tag_62\n      jump\t// in\n    tag_61:\n      mload(0x40)\n      dup1\n      swap2\n      sub\n      swap1\n      revert\n    tag_60:\n        /* \"contracts/FundME.sol\":2055:3584  { //Due to the modifier, it will do whatever is in the modifier first before it executes the function... */\n      pop\n        /* \"contracts/FundME.sol\":2019:3584  function withdraw() public onlyOwner{ //Due to the modifier, it will do whatever is in the modifier first before it executes the function... */\n      jump\t// out\n        /* \"contracts/FundME.sol\":477:533  mapping(address => uint256) public addressToAmountFunded */\n    tag_20:\n      mstore(0x20, 0x02)\n      dup1\n      0x00\n      mstore\n      keccak256(0x00, 0x40)\n      0x00\n      swap2\n      pop\n      swap1\n      pop\n      sload\n      dup2\n      jump\t// out\n        /* \"contracts/FundME.sol\":586:606  address public owner */\n    tag_24:\n      0x03\n      0x00\n      swap1\n      sload\n      swap1\n      0x0100\n      exp\n      swap1\n      div\n      0xffffffffffffffffffffffffffffffffffffffff\n      and\n      dup2\n      jump\t// out\n        /* \"contracts/FundME.sol\":759:1941  function fund() public payable {... */\n    tag_28:\n        /* \"contracts/FundME.sol\":1469:1479  minimumUSD */\n      sload(0x00)\n        /* \"contracts/FundME.sol\":1436:1465  msg.value.getConversionRate() */\n      tag_64\n        /* \"contracts/FundME.sol\":1436:1445  msg.value */\n      callvalue\n        /* \"contracts/FundME.sol\":1436:1463  msg.value.getConversionRate */\n      tag_65\n        /* \"contracts/FundME.sol\":1436:1465  msg.value.getConversionRate() */\n      jump\t// in\n    tag_64:\n        /* \"contracts/FundME.sol\":1436:1479  msg.value.getConversionRate() >= minimumUSD */\n      lt\n      iszero\n        /* \"contracts/FundME.sol\":1428:1502  require(msg.value.getConversionRate() >= minimumUSD, \"Didn't send enough\") */\n      tag_66\n      jumpi\n      mload(0x40)\n      0x08c379a000000000000000000000000000000000000000000000000000000000\n      dup2\n      mstore\n      0x04\n      add\n      tag_67\n      swap1\n      tag_68\n      jump\t// in\n    tag_67:\n      mload(0x40)\n      dup1\n      swap2\n      sub\n      swap1\n      revert\n    tag_66:\n        /* \"contracts/FundME.sol\":1776:1783  funders */\n      0x01\n        /* \"contracts/FundME.sol\":1789:1799  msg.sender */\n      caller\n        /* \"contracts/FundME.sol\":1776:1800  funders.push(msg.sender) */\n      swap1\n      dup1\n      0x01\n      dup2\n      sload\n      add\n      dup1\n      dup3\n      sstore\n      dup1\n      swap2\n      pop\n      pop\n      0x01\n      swap1\n      sub\n      swap1\n      0x00\n      mstore\n      keccak256(0x00, 0x20)\n      add\n      0x00\n      swap1\n      swap2\n      swap1\n      swap2\n      swap1\n      swap2\n      0x0100\n      exp\n      dup2\n      sload\n      dup2\n      0xffffffffffffffffffffffffffffffffffffffff\n      mul\n      not\n      and\n      swap1\n      dup4\n      0xffffffffffffffffffffffffffffffffffffffff\n      and\n      mul\n      or\n      swap1\n      sstore\n      pop\n        /* \"contracts/FundME.sol\":1904:1913  msg.value */\n      callvalue\n        /* \"contracts/FundME.sol\":1868:1889  addressToAmountFunded */\n      0x02\n        /* \"contracts/FundME.sol\":1868:1901  addressToAmountFunded[msg.sender] */\n      0x00\n        /* \"contracts/FundME.sol\":1890:1900  msg.sender */\n      caller\n        /* \"contracts/FundME.sol\":1868:1901  addressToAmountFunded[msg.sender] */\n      0xffffffffffffffffffffffffffffffffffffffff\n      and\n      0xffffffffffffffffffffffffffffffffffffffff\n      and\n      dup2\n      mstore\n      0x20\n      add\n      swap1\n      dup2\n      mstore\n      0x20\n      add\n      0x00\n      keccak256\n        /* \"contracts/FundME.sol\":1868:1913  addressToAmountFunded[msg.sender] = msg.value */\n      dup2\n      swap1\n      sstore\n      pop\n        /* \"contracts/FundME.sol\":759:1941  function fund() public payable {... */\n      jump\t// out\n        /* \"contracts/FundME.sol\":376:401  address [] public funders */\n    tag_33:\n      0x01\n      dup2\n      dup2\n      sload\n      dup2\n      lt\n      tag_70\n      jumpi\n      0x00\n      dup1\n      revert\n    tag_70:\n      swap1\n      0x00\n      mstore\n      keccak256(0x00, 0x20)\n      add\n      0x00\n      swap2\n      pop\n      sload\n      swap1\n      0x0100\n      exp\n      swap1\n      div\n      0xffffffffffffffffffffffffffffffffffffffff\n      and\n      dup2\n      jump\t// out\n        /* \"contracts/PriceConverter.sol\":1808:2199  function getConversionRate(uint256 ethAmount) internal view returns(uint256) {... */\n    tag_65:\n        /* \"contracts/PriceConverter.sol\":1876:1883  uint256 */\n      0x00\n        /* \"contracts/PriceConverter.sol\":1896:1912  uint256 ethPrice */\n      dup1\n        /* \"contracts/PriceConverter.sol\":1915:1925  getPrice() */\n      tag_73\n        /* \"contracts/PriceConverter.sol\":1915:1923  getPrice */\n      tag_74\n        /* \"contracts/PriceConverter.sol\":1915:1925  getPrice() */\n      jump\t// in\n    tag_73:\n        /* \"contracts/PriceConverter.sol\":1896:1925  uint256 ethPrice = getPrice() */\n      swap1\n      pop\n        /* \"contracts/PriceConverter.sol\":2044:2066  uint256 ethAmountInUsd */\n      0x00\n        /* \"contracts/PriceConverter.sol\":2094:2098  1e18 */\n      0x0de0b6b3a7640000\n        /* \"contracts/PriceConverter.sol\":2081:2090  ethAmount */\n      dup5\n        /* \"contracts/PriceConverter.sol\":2070:2078  ethPrice */\n      dup4\n        /* \"contracts/PriceConverter.sol\":2070:2090  ethPrice * ethAmount */\n      tag_75\n      swap2\n      swap1\n      tag_76\n      jump\t// in\n    tag_75:\n        /* \"contracts/PriceConverter.sol\":2069:2098  (ethPrice * ethAmount) / 1e18 */\n      tag_77\n      swap2\n      swap1\n      tag_78\n      jump\t// in\n    tag_77:\n        /* \"contracts/PriceConverter.sol\":2044:2098  uint256 ethAmountInUsd = (ethPrice * ethAmount) / 1e18 */\n      swap1\n      pop\n        /* \"contracts/PriceConverter.sol\":2177:2191  ethAmountInUsd */\n      dup1\n        /* \"contracts/PriceConverter.sol\":2170:2191  return ethAmountInUsd */\n      swap3\n      pop\n      pop\n      pop\n        /* \"contracts/PriceConverter.sol\":1808:2199  function getConversionRate(uint256 ethAmount) internal view returns(uint256) {... */\n      swap2\n      swap1\n      pop\n      jump\t// out\n        /* \"contracts/PriceConverter.sol\":384:1585  function getPrice() internal view returns(uint256){... */\n    tag_74:\n        /* \"contracts/PriceConverter.sol\":426:433  uint256 */\n      0x00\n        /* \"contracts/PriceConverter.sol\":1069:1100  AggregatorV3Interface priceFeed */\n      dup1\n        /* \"contracts/PriceConverter.sol\":1125:1167  0x8A753747A1Fa494EC906cE90E9f37563A8AF630e */\n      0x8a753747a1fa494ec906ce90e9f37563a8af630e\n        /* \"contracts/PriceConverter.sol\":1069:1168  AggregatorV3Interface priceFeed = AggregatorV3Interface(0x8A753747A1Fa494EC906cE90E9f37563A8AF630e) */\n      swap1\n      pop\n        /* \"contracts/PriceConverter.sol\":1181:1190  int price */\n      0x00\n        /* \"contracts/PriceConverter.sol\":1197:1206  priceFeed */\n      dup2\n        /* \"contracts/PriceConverter.sol\":1197:1222  priceFeed.latestRoundData */\n      0xffffffffffffffffffffffffffffffffffffffff\n      and\n      0xfeaf968c\n        /* \"contracts/PriceConverter.sol\":1197:1224  priceFeed.latestRoundData() */\n      mload(0x40)\n      dup2\n      0xffffffff\n      and\n      0xe0\n      shl\n      dup2\n      mstore\n      0x04\n      add\n      0xa0\n      mload(0x40)\n      dup1\n      dup4\n      sub\n      dup2\n      dup7\n      dup1\n      extcodesize\n      iszero\n      dup1\n      iszero\n      tag_80\n      jumpi\n      0x00\n      dup1\n      revert\n    tag_80:\n      pop\n      gas\n      staticcall\n      iszero\n      dup1\n      iszero\n      tag_82\n      jumpi\n      returndatasize\n      0x00\n      dup1\n      returndatacopy\n      revert(0x00, returndatasize)\n    tag_82:\n      pop\n      pop\n      pop\n      pop\n      mload(0x40)\n      returndatasize\n      not(0x1f)\n      0x1f\n      dup3\n      add\n      and\n      dup3\n      add\n      dup1\n      0x40\n      mstore\n      pop\n      dup2\n      add\n      swap1\n      tag_83\n      swap2\n      swap1\n      tag_84\n      jump\t// in\n    tag_83:\n        /* \"contracts/PriceConverter.sol\":1179:1224  (,int price,,,) = priceFeed.latestRoundData() */\n      pop\n      pop\n      pop\n      swap2\n      pop\n      pop\n        /* \"contracts/PriceConverter.sol\":1529:1533  1e10 */\n      0x02540be400\n        /* \"contracts/PriceConverter.sol\":1521:1526  price */\n      dup2\n        /* \"contracts/PriceConverter.sol\":1521:1533  price * 1e10 */\n      tag_85\n      swap2\n      swap1\n      tag_86\n      jump\t// in\n    tag_85:\n        /* \"contracts/PriceConverter.sol\":1506:1534  return uint256(price * 1e10) */\n      swap3\n      pop\n      pop\n      pop\n        /* \"contracts/PriceConverter.sol\":384:1585  function getPrice() internal view returns(uint256){... */\n      swap1\n      jump\t// out\n    tag_54:\n      dup3\n      dup1\n      sload\n      dup3\n      dup3\n      sstore\n      swap1\n      0x00\n      mstore\n      keccak256(0x00, 0x20)\n      swap1\n      dup2\n      add\n      swap3\n      dup3\n      iszero\n      tag_87\n      jumpi\n      swap2\n      0x20\n      mul\n      dup3\n      add\n    tag_88:\n      dup3\n      dup2\n      gt\n      iszero\n      tag_89\n      jumpi\n      dup3\n      mload\n      dup3\n      exp(0x0100, 0x00)\n      dup2\n      sload\n      dup2\n      0xffffffffffffffffffffffffffffffffffffffff\n      mul\n      not\n      and\n      swap1\n      dup4\n      0xffffffffffffffffffffffffffffffffffffffff\n      and\n      mul\n      or\n      swap1\n      sstore\n      pop\n      swap2\n      0x20\n      add\n      swap2\n      swap1\n      0x01\n      add\n      swap1\n      jump(tag_88)\n    tag_89:\n    tag_87:\n      pop\n      swap1\n      pop\n      tag_90\n      swap2\n      swap1\n      tag_91\n      jump\t// in\n    tag_90:\n      pop\n      swap1\n      jump\t// out\n    tag_91:\n    tag_92:\n      dup1\n      dup3\n      gt\n      iszero\n      tag_93\n      jumpi\n      0x00\n      dup2\n      0x00\n      swap1\n      sstore\n      pop\n      0x01\n      add\n      jump(tag_92)\n    tag_93:\n      pop\n      swap1\n      jump\t// out\n        /* \"#utility.yul\":7:84   */\n    tag_94:\n        /* \"#utility.yul\":44:51   */\n      0x00\n        /* \"#utility.yul\":73:78   */\n      dup2\n        /* \"#utility.yul\":62:78   */\n      swap1\n      pop\n        /* \"#utility.yul\":7:84   */\n      swap2\n      swap1\n      pop\n      jump\t// out\n        /* \"#utility.yul\":90:208   */\n    tag_95:\n        /* \"#utility.yul\":177:201   */\n      tag_128\n        /* \"#utility.yul\":195:200   */\n      dup2\n        /* \"#utility.yul\":177:201   */\n      tag_94\n      jump\t// in\n    tag_128:\n        /* \"#utility.yul\":172:175   */\n      dup3\n        /* \"#utility.yul\":165:202   */\n      mstore\n        /* \"#utility.yul\":90:208   */\n      pop\n      pop\n      jump\t// out\n        /* \"#utility.yul\":214:436   */\n    tag_12:\n        /* \"#utility.yul\":307:311   */\n      0x00\n        /* \"#utility.yul\":345:347   */\n      0x20\n        /* \"#utility.yul\":334:343   */\n      dup3\n        /* \"#utility.yul\":330:348   */\n      add\n        /* \"#utility.yul\":322:348   */\n      swap1\n      pop\n        /* \"#utility.yul\":358:429   */\n      tag_130\n        /* \"#utility.yul\":426:427   */\n      0x00\n        /* \"#utility.yul\":415:424   */\n      dup4\n        /* \"#utility.yul\":411:428   */\n      add\n        /* \"#utility.yul\":402:408   */\n      dup5\n        /* \"#utility.yul\":358:429   */\n      tag_95\n      jump\t// in\n    tag_130:\n        /* \"#utility.yul\":214:436   */\n      swap3\n      swap2\n      pop\n      pop\n      jump\t// out\n        /* \"#utility.yul\":523:640   */\n    tag_97:\n        /* \"#utility.yul\":632:633   */\n      0x00\n        /* \"#utility.yul\":629:630   */\n      dup1\n        /* \"#utility.yul\":622:634   */\n      revert\n        /* \"#utility.yul\":769:895   */\n    tag_99:\n        /* \"#utility.yul\":806:813   */\n      0x00\n        /* \"#utility.yul\":846:888   */\n      0xffffffffffffffffffffffffffffffffffffffff\n        /* \"#utility.yul\":839:844   */\n      dup3\n        /* \"#utility.yul\":835:889   */\n      and\n        /* \"#utility.yul\":824:889   */\n      swap1\n      pop\n        /* \"#utility.yul\":769:895   */\n      swap2\n      swap1\n      pop\n      jump\t// out\n        /* \"#utility.yul\":901:997   */\n    tag_100:\n        /* \"#utility.yul\":938:945   */\n      0x00\n        /* \"#utility.yul\":967:991   */\n      tag_136\n        /* \"#utility.yul\":985:990   */\n      dup3\n        /* \"#utility.yul\":967:991   */\n      tag_99\n      jump\t// in\n    tag_136:\n        /* \"#utility.yul\":956:991   */\n      swap1\n      pop\n        /* \"#utility.yul\":901:997   */\n      swap2\n      swap1\n      pop\n      jump\t// out\n        /* \"#utility.yul\":1003:1125   */\n    tag_101:\n        /* \"#utility.yul\":1076:1100   */\n      tag_138\n        /* \"#utility.yul\":1094:1099   */\n      dup2\n        /* \"#utility.yul\":1076:1100   */\n      tag_100\n      jump\t// in\n    tag_138:\n        /* \"#utility.yul\":1069:1074   */\n      dup2\n        /* \"#utility.yul\":1066:1101   */\n      eq\n        /* \"#utility.yul\":1056:1119   */\n      tag_139\n      jumpi\n        /* \"#utility.yul\":1115:1116   */\n      0x00\n        /* \"#utility.yul\":1112:1113   */\n      dup1\n        /* \"#utility.yul\":1105:1117   */\n      revert\n        /* \"#utility.yul\":1056:1119   */\n    tag_139:\n        /* \"#utility.yul\":1003:1125   */\n      pop\n      jump\t// out\n        /* \"#utility.yul\":1131:1270   */\n    tag_102:\n        /* \"#utility.yul\":1177:1182   */\n      0x00\n        /* \"#utility.yul\":1215:1221   */\n      dup2\n        /* \"#utility.yul\":1202:1222   */\n      calldataload\n        /* \"#utility.yul\":1193:1222   */\n      swap1\n      pop\n        /* \"#utility.yul\":1231:1264   */\n      tag_141\n        /* \"#utility.yul\":1258:1263   */\n      dup2\n        /* \"#utility.yul\":1231:1264   */\n      tag_101\n      jump\t// in\n    tag_141:\n        /* \"#utility.yul\":1131:1270   */\n      swap3\n      swap2\n      pop\n      pop\n      jump\t// out\n        /* \"#utility.yul\":1276:1605   */\n    tag_19:\n        /* \"#utility.yul\":1335:1341   */\n      0x00\n        /* \"#utility.yul\":1384:1386   */\n      0x20\n        /* \"#utility.yul\":1372:1381   */\n      dup3\n        /* \"#utility.yul\":1363:1370   */\n      dup5\n        /* \"#utility.yul\":1359:1382   */\n      sub\n        /* \"#utility.yul\":1355:1387   */\n      slt\n        /* \"#utility.yul\":1352:1471   */\n      iszero\n      tag_143\n      jumpi\n        /* \"#utility.yul\":1390:1469   */\n      tag_144\n      tag_97\n      jump\t// in\n    tag_144:\n        /* \"#utility.yul\":1352:1471   */\n    tag_143:\n        /* \"#utility.yul\":1510:1511   */\n      0x00\n        /* \"#utility.yul\":1535:1588   */\n      tag_145\n        /* \"#utility.yul\":1580:1587   */\n      dup5\n        /* \"#utility.yul\":1571:1577   */\n      dup3\n        /* \"#utility.yul\":1560:1569   */\n      dup6\n        /* \"#utility.yul\":1556:1578   */\n      add\n        /* \"#utility.yul\":1535:1588   */\n      tag_102\n      jump\t// in\n    tag_145:\n        /* \"#utility.yul\":1525:1588   */\n      swap2\n      pop\n        /* \"#utility.yul\":1481:1598   */\n      pop\n        /* \"#utility.yul\":1276:1605   */\n      swap3\n      swap2\n      pop\n      pop\n      jump\t// out\n        /* \"#utility.yul\":1611:1729   */\n    tag_103:\n        /* \"#utility.yul\":1698:1722   */\n      tag_147\n        /* \"#utility.yul\":1716:1721   */\n      dup2\n        /* \"#utility.yul\":1698:1722   */\n      tag_100\n      jump\t// in\n    tag_147:\n        /* \"#utility.yul\":1693:1696   */\n      dup3\n        /* \"#utility.yul\":1686:1723   */\n      mstore\n        /* \"#utility.yul\":1611:1729   */\n      pop\n      pop\n      jump\t// out\n        /* \"#utility.yul\":1735:1957   */\n    tag_26:\n        /* \"#utility.yul\":1828:1832   */\n      0x00\n        /* \"#utility.yul\":1866:1868   */\n      0x20\n        /* \"#utility.yul\":1855:1864   */\n      dup3\n        /* \"#utility.yul\":1851:1869   */\n      add\n        /* \"#utility.yul\":1843:1869   */\n      swap1\n      pop\n        /* \"#utility.yul\":1879:1950   */\n      tag_149\n        /* \"#utility.yul\":1947:1948   */\n      0x00\n        /* \"#utility.yul\":1936:1945   */\n      dup4\n        /* \"#utility.yul\":1932:1949   */\n      add\n        /* \"#utility.yul\":1923:1929   */\n      dup5\n        /* \"#utility.yul\":1879:1950   */\n      tag_103\n      jump\t// in\n    tag_149:\n        /* \"#utility.yul\":1735:1957   */\n      swap3\n      swap2\n      pop\n      pop\n      jump\t// out\n        /* \"#utility.yul\":1963:2085   */\n    tag_104:\n        /* \"#utility.yul\":2036:2060   */\n      tag_151\n        /* \"#utility.yul\":2054:2059   */\n      dup2\n        /* \"#utility.yul\":2036:2060   */\n      tag_94\n      jump\t// in\n    tag_151:\n        /* \"#utility.yul\":2029:2034   */\n      dup2\n        /* \"#utility.yul\":2026:2061   */\n      eq\n        /* \"#utility.yul\":2016:2079   */\n      tag_152\n      jumpi\n        /* \"#utility.yul\":2075:2076   */\n      0x00\n        /* \"#utility.yul\":2072:2073   */\n      dup1\n        /* \"#utility.yul\":2065:2077   */\n      revert\n        /* \"#utility.yul\":2016:2079   */\n    tag_152:\n        /* \"#utility.yul\":1963:2085   */\n      pop\n      jump\t// out\n        /* \"#utility.yul\":2091:2230   */\n    tag_105:\n        /* \"#utility.yul\":2137:2142   */\n      0x00\n        /* \"#utility.yul\":2175:2181   */\n      dup2\n        /* \"#utility.yul\":2162:2182   */\n      calldataload\n        /* \"#utility.yul\":2153:2182   */\n      swap1\n      pop\n        /* \"#utility.yul\":2191:2224   */\n      tag_154\n        /* \"#utility.yul\":2218:2223   */\n      dup2\n        /* \"#utility.yul\":2191:2224   */\n      tag_104\n      jump\t// in\n    tag_154:\n        /* \"#utility.yul\":2091:2230   */\n      swap3\n      swap2\n      pop\n      pop\n      jump\t// out\n        /* \"#utility.yul\":2236:2565   */\n    tag_32:\n        /* \"#utility.yul\":2295:2301   */\n      0x00\n        /* \"#utility.yul\":2344:2346   */\n      0x20\n        /* \"#utility.yul\":2332:2341   */\n      dup3\n        /* \"#utility.yul\":2323:2330   */\n      dup5\n        /* \"#utility.yul\":2319:2342   */\n      sub\n        /* \"#utility.yul\":2315:2347   */\n      slt\n        /* \"#utility.yul\":2312:2431   */\n      iszero\n      tag_156\n      jumpi\n        /* \"#utility.yul\":2350:2429   */\n      tag_157\n      tag_97\n      jump\t// in\n    tag_157:\n        /* \"#utility.yul\":2312:2431   */\n    tag_156:\n        /* \"#utility.yul\":2470:2471   */\n      0x00\n        /* \"#utility.yul\":2495:2548   */\n      tag_158\n        /* \"#utility.yul\":2540:2547   */\n      dup5\n        /* \"#utility.yul\":2531:2537   */\n      dup3\n        /* \"#utility.yul\":2520:2529   */\n      dup6\n        /* \"#utility.yul\":2516:2538   */\n      add\n        /* \"#utility.yul\":2495:2548   */\n      tag_105\n      jump\t// in\n    tag_158:\n        /* \"#utility.yul\":2485:2548   */\n      swap2\n      pop\n        /* \"#utility.yul\":2441:2558   */\n      pop\n        /* \"#utility.yul\":2236:2565   */\n      swap3\n      swap2\n      pop\n      pop\n      jump\t// out\n        /* \"#utility.yul\":2571:2740   */\n    tag_106:\n        /* \"#utility.yul\":2655:2666   */\n      0x00\n        /* \"#utility.yul\":2689:2695   */\n      dup3\n        /* \"#utility.yul\":2684:2687   */\n      dup3\n        /* \"#utility.yul\":2677:2696   */\n      mstore\n        /* \"#utility.yul\":2729:2733   */\n      0x20\n        /* \"#utility.yul\":2724:2727   */\n      dup3\n        /* \"#utility.yul\":2720:2734   */\n      add\n        /* \"#utility.yul\":2705:2734   */\n      swap1\n      pop\n        /* \"#utility.yul\":2571:2740   */\n      swap3\n      swap2\n      pop\n      pop\n      jump\t// out\n        /* \"#utility.yul\":2746:2916   */\n    tag_107:\n        /* \"#utility.yul\":2886:2908   */\n      0x53656e646572206973206e6f74204f776e657221000000000000000000000000\n        /* \"#utility.yul\":2882:2883   */\n      0x00\n        /* \"#utility.yul\":2874:2880   */\n      dup3\n        /* \"#utility.yul\":2870:2884   */\n      add\n        /* \"#utility.yul\":2863:2909   */\n      mstore\n        /* \"#utility.yul\":2746:2916   */\n      pop\n      jump\t// out\n        /* \"#utility.yul\":2922:3288   */\n    tag_108:\n        /* \"#utility.yul\":3064:3067   */\n      0x00\n        /* \"#utility.yul\":3085:3152   */\n      tag_162\n        /* \"#utility.yul\":3149:3151   */\n      0x14\n        /* \"#utility.yul\":3144:3147   */\n      dup4\n        /* \"#utility.yul\":3085:3152   */\n      tag_106\n      jump\t// in\n    tag_162:\n        /* \"#utility.yul\":3078:3152   */\n      swap2\n      pop\n        /* \"#utility.yul\":3161:3254   */\n      tag_163\n        /* \"#utility.yul\":3250:3253   */\n      dup3\n        /* \"#utility.yul\":3161:3254   */\n      tag_107\n      jump\t// in\n    tag_163:\n        /* \"#utility.yul\":3279:3281   */\n      0x20\n        /* \"#utility.yul\":3274:3277   */\n      dup3\n        /* \"#utility.yul\":3270:3282   */\n      add\n        /* \"#utility.yul\":3263:3282   */\n      swap1\n      pop\n        /* \"#utility.yul\":2922:3288   */\n      swap2\n      swap1\n      pop\n      jump\t// out\n        /* \"#utility.yul\":3294:3713   */\n    tag_38:\n        /* \"#utility.yul\":3460:3464   */\n      0x00\n        /* \"#utility.yul\":3498:3500   */\n      0x20\n        /* \"#utility.yul\":3487:3496   */\n      dup3\n        /* \"#utility.yul\":3483:3501   */\n      add\n        /* \"#utility.yul\":3475:3501   */\n      swap1\n      pop\n        /* \"#utility.yul\":3547:3556   */\n      dup2\n        /* \"#utility.yul\":3541:3545   */\n      dup2\n        /* \"#utility.yul\":3537:3557   */\n      sub\n        /* \"#utility.yul\":3533:3534   */\n      0x00\n        /* \"#utility.yul\":3522:3531   */\n      dup4\n        /* \"#utility.yul\":3518:3535   */\n      add\n        /* \"#utility.yul\":3511:3558   */\n      mstore\n        /* \"#utility.yul\":3575:3706   */\n      tag_165\n        /* \"#utility.yul\":3701:3705   */\n      dup2\n        /* \"#utility.yul\":3575:3706   */\n      tag_108\n      jump\t// in\n    tag_165:\n        /* \"#utility.yul\":3567:3706   */\n      swap1\n      pop\n        /* \"#utility.yul\":3294:3713   */\n      swap2\n      swap1\n      pop\n      jump\t// out\n        /* \"#utility.yul\":3719:3899   */\n    tag_45:\n        /* \"#utility.yul\":3767:3844   */\n      0x4e487b7100000000000000000000000000000000000000000000000000000000\n        /* \"#utility.yul\":3764:3765   */\n      0x00\n        /* \"#utility.yul\":3757:3845   */\n      mstore\n        /* \"#utility.yul\":3864:3868   */\n      0x32\n        /* \"#utility.yul\":3861:3862   */\n      0x04\n        /* \"#utility.yul\":3854:3869   */\n      mstore\n        /* \"#utility.yul\":3888:3892   */\n      0x24\n        /* \"#utility.yul\":3885:3886   */\n      0x00\n        /* \"#utility.yul\":3878:3893   */\n      revert\n        /* \"#utility.yul\":3905:4085   */\n    tag_109:\n        /* \"#utility.yul\":3953:4030   */\n      0x4e487b7100000000000000000000000000000000000000000000000000000000\n        /* \"#utility.yul\":3950:3951   */\n      0x00\n        /* \"#utility.yul\":3943:4031   */\n      mstore\n        /* \"#utility.yul\":4050:4054   */\n      0x11\n        /* \"#utility.yul\":4047:4048   */\n      0x04\n        /* \"#utility.yul\":4040:4055   */\n      mstore\n        /* \"#utility.yul\":4074:4078   */\n      0x24\n        /* \"#utility.yul\":4071:4072   */\n      0x00\n        /* \"#utility.yul\":4064:4079   */\n      revert\n        /* \"#utility.yul\":4091:4324   */\n    tag_48:\n        /* \"#utility.yul\":4130:4133   */\n      0x00\n        /* \"#utility.yul\":4153:4177   */\n      tag_169\n        /* \"#utility.yul\":4171:4176   */\n      dup3\n        /* \"#utility.yul\":4153:4177   */\n      tag_94\n      jump\t// in\n    tag_169:\n        /* \"#utility.yul\":4144:4177   */\n      swap2\n      pop\n        /* \"#utility.yul\":4199:4265   */\n      0xffffffffffffffffffffffffffffffffffffffffffffffffffffffffffffffff\n        /* \"#utility.yul\":4192:4197   */\n      dup3\n        /* \"#utility.yul\":4189:4266   */\n      eq\n        /* \"#utility.yul\":4186:4289   */\n      iszero\n      tag_170\n      jumpi\n        /* \"#utility.yul\":4269:4287   */\n      tag_171\n      tag_109\n      jump\t// in\n    tag_171:\n        /* \"#utility.yul\":4186:4289   */\n    tag_170:\n        /* \"#utility.yul\":4316:4317   */\n      0x01\n        /* \"#utility.yul\":4309:4314   */\n      dup3\n        /* \"#utility.yul\":4305:4318   */\n      add\n        /* \"#utility.yul\":4298:4318   */\n      swap1\n      pop\n        /* \"#utility.yul\":4091:4324   */\n      swap2\n      swap1\n      pop\n      jump\t// out\n        /* \"#utility.yul\":4330:4510   */\n    tag_51:\n        /* \"#utility.yul\":4378:4455   */\n      0x4e487b7100000000000000000000000000000000000000000000000000000000\n        /* \"#utility.yul\":4375:4376   */\n      0x00\n        /* \"#utility.yul\":4368:4456   */\n      mstore\n        /* \"#utility.yul\":4475:4479   */\n      0x41\n        /* \"#utility.yul\":4472:4473   */\n      0x04\n        /* \"#utility.yul\":4465:4480   */\n      mstore\n        /* \"#utility.yul\":4499:4503   */\n      0x24\n        /* \"#utility.yul\":4496:4497   */\n      0x00\n        /* \"#utility.yul\":4489:4504   */\n      revert\n        /* \"#utility.yul\":4516:4663   */\n    tag_110:\n        /* \"#utility.yul\":4617:4628   */\n      0x00\n        /* \"#utility.yul\":4654:4657   */\n      dup2\n        /* \"#utility.yul\":4639:4657   */\n      swap1\n      pop\n        /* \"#utility.yul\":4516:4663   */\n      swap3\n      swap2\n      pop\n      pop\n      jump\t// out\n        /* \"#utility.yul\":4669:4783   */\n    tag_111:\n      pop\n      jump\t// out\n        /* \"#utility.yul\":4789:5187   */\n    tag_112:\n        /* \"#utility.yul\":4948:4951   */\n      0x00\n        /* \"#utility.yul\":4969:5052   */\n      tag_176\n        /* \"#utility.yul\":5050:5051   */\n      0x00\n        /* \"#utility.yul\":5045:5048   */\n      dup4\n        /* \"#utility.yul\":4969:5052   */\n      tag_110\n      jump\t// in\n    tag_176:\n        /* \"#utility.yul\":4962:5052   */\n      swap2\n      pop\n        /* \"#utility.yul\":5061:5154   */\n      tag_177\n        /* \"#utility.yul\":5150:5153   */\n      dup3\n        /* \"#utility.yul\":5061:5154   */\n      tag_111\n      jump\t// in\n    tag_177:\n        /* \"#utility.yul\":5179:5180   */\n      0x00\n        /* \"#utility.yul\":5174:5177   */\n      dup3\n        /* \"#utility.yul\":5170:5181   */\n      add\n        /* \"#utility.yul\":5163:5181   */\n      swap1\n      pop\n        /* \"#utility.yul\":4789:5187   */\n      swap2\n      swap1\n      pop\n      jump\t// out\n        /* \"#utility.yul\":5193:5572   */\n    tag_56:\n        /* \"#utility.yul\":5377:5380   */\n      0x00\n        /* \"#utility.yul\":5399:5546   */\n      tag_179\n        /* \"#utility.yul\":5542:5545   */\n      dup3\n        /* \"#utility.yul\":5399:5546   */\n      tag_112\n      jump\t// in\n    tag_179:\n        /* \"#utility.yul\":5392:5546   */\n      swap2\n      pop\n        /* \"#utility.yul\":5563:5566   */\n      dup2\n        /* \"#utility.yul\":5556:5566   */\n      swap1\n      pop\n        /* \"#utility.yul\":5193:5572   */\n      swap2\n      swap1\n      pop\n      jump\t// out\n        /* \"#utility.yul\":5578:5739   */\n    tag_113:\n        /* \"#utility.yul\":5718:5731   */\n      0x43616c6c204661696c6564000000000000000000000000000000000000000000\n        /* \"#utility.yul\":5714:5715   */\n      0x00\n        /* \"#utility.yul\":5706:5712   */\n      dup3\n        /* \"#utility.yul\":5702:5716   */\n      add\n        /* \"#utility.yul\":5695:5732   */\n      mstore\n        /* \"#utility.yul\":5578:5739   */\n      pop\n      jump\t// out\n        /* \"#utility.yul\":5745:6111   */\n    tag_114:\n        /* \"#utility.yul\":5887:5890   */\n      0x00\n        /* \"#utility.yul\":5908:5975   */\n      tag_182\n        /* \"#utility.yul\":5972:5974   */\n      0x0b\n        /* \"#utility.yul\":5967:5970   */\n      dup4\n        /* \"#utility.yul\":5908:5975   */\n      tag_106\n      jump\t// in\n    tag_182:\n        /* \"#utility.yul\":5901:5975   */\n      swap2\n      pop\n        /* \"#utility.yul\":5984:6077   */\n      tag_183\n        /* \"#utility.yul\":6073:6076   */\n      dup3\n        /* \"#utility.yul\":5984:6077   */\n      tag_113\n      jump\t// in\n    tag_183:\n        /* \"#utility.yul\":6102:6104   */\n      0x20\n        /* \"#utility.yul\":6097:6100   */\n      dup3\n        /* \"#utility.yul\":6093:6105   */\n      add\n        /* \"#utility.yul\":6086:6105   */\n      swap1\n      pop\n        /* \"#utility.yul\":5745:6111   */\n      swap2\n      swap1\n      pop\n      jump\t// out\n        /* \"#utility.yul\":6117:6536   */\n    tag_62:\n        /* \"#utility.yul\":6283:6287   */\n      0x00\n        /* \"#utility.yul\":6321:6323   */\n      0x20\n        /* \"#utility.yul\":6310:6319   */\n      dup3\n        /* \"#utility.yul\":6306:6324   */\n      add\n        /* \"#utility.yul\":6298:6324   */\n      swap1\n      pop\n        /* \"#utility.yul\":6370:6379   */\n      dup2\n        /* \"#utility.yul\":6364:6368   */\n      dup2\n        /* \"#utility.yul\":6360:6380   */\n      sub\n        /* \"#utility.yul\":6356:6357   */\n      0x00\n        /* \"#utility.yul\":6345:6354   */\n      dup4\n        /* \"#utility.yul\":6341:6358   */\n      add\n        /* \"#utility.yul\":6334:6381   */\n      mstore\n        /* \"#utility.yul\":6398:6529   */\n      tag_185\n        /* \"#utility.yul\":6524:6528   */\n      dup2\n        /* \"#utility.yul\":6398:6529   */\n      tag_114\n      jump\t// in\n    tag_185:\n        /* \"#utility.yul\":6390:6529   */\n      swap1\n      pop\n        /* \"#utility.yul\":6117:6536   */\n      swap2\n      swap1\n      pop\n      jump\t// out\n        /* \"#utility.yul\":6542:6710   */\n    tag_115:\n        /* \"#utility.yul\":6682:6702   */\n      0x4469646e27742073656e6420656e6f7567680000000000000000000000000000\n        /* \"#utility.yul\":6678:6679   */\n      0x00\n        /* \"#utility.yul\":6670:6676   */\n      dup3\n        /* \"#utility.yul\":6666:6680   */\n      add\n        /* \"#utility.yul\":6659:6703   */\n      mstore\n        /* \"#utility.yul\":6542:6710   */\n      pop\n      jump\t// out\n        /* \"#utility.yul\":6716:7082   */\n    tag_116:\n        /* \"#utility.yul\":6858:6861   */\n      0x00\n        /* \"#utility.yul\":6879:6946   */\n      tag_188\n        /* \"#utility.yul\":6943:6945   */\n      0x12\n        /* \"#utility.yul\":6938:6941   */\n      dup4\n        /* \"#utility.yul\":6879:6946   */\n      tag_106\n      jump\t// in\n    tag_188:\n        /* \"#utility.yul\":6872:6946   */\n      swap2\n      pop\n        /* \"#utility.yul\":6955:7048   */\n      tag_189\n        /* \"#utility.yul\":7044:7047   */\n      dup3\n        /* \"#utility.yul\":6955:7048   */\n      tag_115\n      jump\t// in\n    tag_189:\n        /* \"#utility.yul\":7073:7075   */\n      0x20\n        /* \"#utility.yul\":7068:7071   */\n      dup3\n        /* \"#utility.yul\":7064:7076   */\n      add\n        /* \"#utility.yul\":7057:7076   */\n      swap1\n      pop\n        /* \"#utility.yul\":6716:7082   */\n      swap2\n      swap1\n      pop\n      jump\t// out\n        /* \"#utility.yul\":7088:7507   */\n    tag_68:\n        /* \"#utility.yul\":7254:7258   */\n      0x00\n        /* \"#utility.yul\":7292:7294   */\n      0x20\n        /* \"#utility.yul\":7281:7290   */\n      dup3\n        /* \"#utility.yul\":7277:7295   */\n      add\n        /* \"#utility.yul\":7269:7295   */\n      swap1\n      pop\n        /* \"#utility.yul\":7341:7350   */\n      dup2\n        /* \"#utility.yul\":7335:7339   */\n      dup2\n        /* \"#utility.yul\":7331:7351   */\n      sub\n        /* \"#utility.yul\":7327:7328   */\n      0x00\n        /* \"#utility.yul\":7316:7325   */\n      dup4\n        /* \"#utility.yul\":7312:7329   */\n      add\n        /* \"#utility.yul\":7305:7352   */\n      mstore\n        /* \"#utility.yul\":7369:7500   */\n      tag_191\n        /* \"#utility.yul\":7495:7499   */\n      dup2\n        /* \"#utility.yul\":7369:7500   */\n      tag_116\n      jump\t// in\n    tag_191:\n        /* \"#utility.yul\":7361:7500   */\n      swap1\n      pop\n        /* \"#utility.yul\":7088:7507   */\n      swap2\n      swap1\n      pop\n      jump\t// out\n        /* \"#utility.yul\":7513:7861   */\n    tag_76:\n        /* \"#utility.yul\":7553:7560   */\n      0x00\n        /* \"#utility.yul\":7576:7596   */\n      tag_193\n        /* \"#utility.yul\":7594:7595   */\n      dup3\n        /* \"#utility.yul\":7576:7596   */\n      tag_94\n      jump\t// in\n    tag_193:\n        /* \"#utility.yul\":7571:7596   */\n      swap2\n      pop\n        /* \"#utility.yul\":7610:7630   */\n      tag_194\n        /* \"#utility.yul\":7628:7629   */\n      dup4\n        /* \"#utility.yul\":7610:7630   */\n      tag_94\n      jump\t// in\n    tag_194:\n        /* \"#utility.yul\":7605:7630   */\n      swap3\n      pop\n        /* \"#utility.yul\":7798:7799   */\n      dup2\n        /* \"#utility.yul\":7730:7796   */\n      0xffffffffffffffffffffffffffffffffffffffffffffffffffffffffffffffff\n        /* \"#utility.yul\":7726:7800   */\n      div\n        /* \"#utility.yul\":7723:7724   */\n      dup4\n        /* \"#utility.yul\":7720:7801   */\n      gt\n        /* \"#utility.yul\":7715:7716   */\n      dup3\n        /* \"#utility.yul\":7708:7717   */\n      iszero\n        /* \"#utility.yul\":7701:7718   */\n      iszero\n        /* \"#utility.yul\":7697:7802   */\n      and\n        /* \"#utility.yul\":7694:7825   */\n      iszero\n      tag_195\n      jumpi\n        /* \"#utility.yul\":7805:7823   */\n      tag_196\n      tag_109\n      jump\t// in\n    tag_196:\n        /* \"#utility.yul\":7694:7825   */\n    tag_195:\n        /* \"#utility.yul\":7853:7854   */\n      dup3\n        /* \"#utility.yul\":7850:7851   */\n      dup3\n        /* \"#utility.yul\":7846:7855   */\n      mul\n        /* \"#utility.yul\":7835:7855   */\n      swap1\n      pop\n        /* \"#utility.yul\":7513:7861   */\n      swap3\n      swap2\n      pop\n      pop\n      jump\t// out\n        /* \"#utility.yul\":7867:8047   */\n    tag_117:\n        /* \"#utility.yul\":7915:7992   */\n      0x4e487b7100000000000000000000000000000000000000000000000000000000\n        /* \"#utility.yul\":7912:7913   */\n      0x00\n        /* \"#utility.yul\":7905:7993   */\n      mstore\n        /* \"#utility.yul\":8012:8016   */\n      0x12\n        /* \"#utility.yul\":8009:8010   */\n      0x04\n        /* \"#utility.yul\":8002:8017   */\n      mstore\n        /* \"#utility.yul\":8036:8040   */\n      0x24\n        /* \"#utility.yul\":8033:8034   */\n      0x00\n        /* \"#utility.yul\":8026:8041   */\n      revert\n        /* \"#utility.yul\":8053:8238   */\n    tag_78:\n        /* \"#utility.yul\":8093:8094   */\n      0x00\n        /* \"#utility.yul\":8110:8130   */\n      tag_199\n        /* \"#utility.yul\":8128:8129   */\n      dup3\n        /* \"#utility.yul\":8110:8130   */\n      tag_94\n      jump\t// in\n    tag_199:\n        /* \"#utility.yul\":8105:8130   */\n      swap2\n      pop\n        /* \"#utility.yul\":8144:8164   */\n      tag_200\n        /* \"#utility.yul\":8162:8163   */\n      dup4\n        /* \"#utility.yul\":8144:8164   */\n      tag_94\n      jump\t// in\n    tag_200:\n        /* \"#utility.yul\":8139:8164   */\n      swap3\n      pop\n        /* \"#utility.yul\":8183:8184   */\n      dup3\n        /* \"#utility.yul\":8173:8208   */\n      tag_201\n      jumpi\n        /* \"#utility.yul\":8188:8206   */\n      tag_202\n      tag_117\n      jump\t// in\n    tag_202:\n        /* \"#utility.yul\":8173:8208   */\n    tag_201:\n        /* \"#utility.yul\":8230:8231   */\n      dup3\n        /* \"#utility.yul\":8227:8228   */\n      dup3\n        /* \"#utility.yul\":8223:8232   */\n      div\n        /* \"#utility.yul\":8218:8232   */\n      swap1\n      pop\n        /* \"#utility.yul\":8053:8238   */\n      swap3\n      swap2\n      pop\n      pop\n      jump\t// out\n        /* \"#utility.yul\":8244:8349   */\n    tag_118:\n        /* \"#utility.yul\":8280:8287   */\n      0x00\n        /* \"#utility.yul\":8320:8342   */\n      0xffffffffffffffffffff\n        /* \"#utility.yul\":8313:8318   */\n      dup3\n        /* \"#utility.yul\":8309:8343   */\n      and\n        /* \"#utility.yul\":8298:8343   */\n      swap1\n      pop\n        /* \"#utility.yul\":8244:8349   */\n      swap2\n      swap1\n      pop\n      jump\t// out\n        /* \"#utility.yul\":8355:8475   */\n    tag_119:\n        /* \"#utility.yul\":8427:8450   */\n      tag_205\n        /* \"#utility.yul\":8444:8449   */\n      dup2\n        /* \"#utility.yul\":8427:8450   */\n      tag_118\n      jump\t// in\n    tag_205:\n        /* \"#utility.yul\":8420:8425   */\n      dup2\n        /* \"#utility.yul\":8417:8451   */\n      eq\n        /* \"#utility.yul\":8407:8469   */\n      tag_206\n      jumpi\n        /* \"#utility.yul\":8465:8466   */\n      0x00\n        /* \"#utility.yul\":8462:8463   */\n      dup1\n        /* \"#utility.yul\":8455:8467   */\n      revert\n        /* \"#utility.yul\":8407:8469   */\n    tag_206:\n        /* \"#utility.yul\":8355:8475   */\n      pop\n      jump\t// out\n        /* \"#utility.yul\":8481:8622   */\n    tag_120:\n        /* \"#utility.yul\":8537:8542   */\n      0x00\n        /* \"#utility.yul\":8568:8574   */\n      dup2\n        /* \"#utility.yul\":8562:8575   */\n      mload\n        /* \"#utility.yul\":8553:8575   */\n      swap1\n      pop\n        /* \"#utility.yul\":8584:8616   */\n      tag_208\n        /* \"#utility.yul\":8610:8615   */\n      dup2\n        /* \"#utility.yul\":8584:8616   */\n      tag_119\n      jump\t// in\n    tag_208:\n        /* \"#utility.yul\":8481:8622   */\n      swap3\n      swap2\n      pop\n      pop\n      jump\t// out\n        /* \"#utility.yul\":8628:8704   */\n    tag_121:\n        /* \"#utility.yul\":8664:8671   */\n      0x00\n        /* \"#utility.yul\":8693:8698   */\n      dup2\n        /* \"#utility.yul\":8682:8698   */\n      swap1\n      pop\n        /* \"#utility.yul\":8628:8704   */\n      swap2\n      swap1\n      pop\n      jump\t// out\n        /* \"#utility.yul\":8710:8830   */\n    tag_122:\n        /* \"#utility.yul\":8782:8805   */\n      tag_211\n        /* \"#utility.yul\":8799:8804   */\n      dup2\n        /* \"#utility.yul\":8782:8805   */\n      tag_121\n      jump\t// in\n    tag_211:\n        /* \"#utility.yul\":8775:8780   */\n      dup2\n        /* \"#utility.yul\":8772:8806   */\n      eq\n        /* \"#utility.yul\":8762:8824   */\n      tag_212\n      jumpi\n        /* \"#utility.yul\":8820:8821   */\n      0x00\n        /* \"#utility.yul\":8817:8818   */\n      dup1\n        /* \"#utility.yul\":8810:8822   */\n      revert\n        /* \"#utility.yul\":8762:8824   */\n    tag_212:\n        /* \"#utility.yul\":8710:8830   */\n      pop\n      jump\t// out\n        /* \"#utility.yul\":8836:8977   */\n    tag_123:\n        /* \"#utility.yul\":8892:8897   */\n      0x00\n        /* \"#utility.yul\":8923:8929   */\n      dup2\n        /* \"#utility.yul\":8917:8930   */\n      mload\n        /* \"#utility.yul\":8908:8930   */\n      swap1\n      pop\n        /* \"#utility.yul\":8939:8971   */\n      tag_214\n        /* \"#utility.yul\":8965:8970   */\n      dup2\n        /* \"#utility.yul\":8939:8971   */\n      tag_122\n      jump\t// in\n    tag_214:\n        /* \"#utility.yul\":8836:8977   */\n      swap3\n      swap2\n      pop\n      pop\n      jump\t// out\n        /* \"#utility.yul\":8983:9126   */\n    tag_124:\n        /* \"#utility.yul\":9040:9045   */\n      0x00\n        /* \"#utility.yul\":9071:9077   */\n      dup2\n        /* \"#utility.yul\":9065:9078   */\n      mload\n        /* \"#utility.yul\":9056:9078   */\n      swap1\n      pop\n        /* \"#utility.yul\":9087:9120   */\n      tag_216\n        /* \"#utility.yul\":9114:9119   */\n      dup2\n        /* \"#utility.yul\":9087:9120   */\n      tag_104\n      jump\t// in\n    tag_216:\n        /* \"#utility.yul\":8983:9126   */\n      swap3\n      swap2\n      pop\n      pop\n      jump\t// out\n        /* \"#utility.yul\":9132:10103   */\n    tag_84:\n        /* \"#utility.yul\":9235:9241   */\n      0x00\n        /* \"#utility.yul\":9243:9249   */\n      dup1\n        /* \"#utility.yul\":9251:9257   */\n      0x00\n        /* \"#utility.yul\":9259:9265   */\n      dup1\n        /* \"#utility.yul\":9267:9273   */\n      0x00\n        /* \"#utility.yul\":9316:9319   */\n      0xa0\n        /* \"#utility.yul\":9304:9313   */\n      dup7\n        /* \"#utility.yul\":9295:9302   */\n      dup9\n        /* \"#utility.yul\":9291:9314   */\n      sub\n        /* \"#utility.yul\":9287:9320   */\n      slt\n        /* \"#utility.yul\":9284:9404   */\n      iszero\n      tag_218\n      jumpi\n        /* \"#utility.yul\":9323:9402   */\n      tag_219\n      tag_97\n      jump\t// in\n    tag_219:\n        /* \"#utility.yul\":9284:9404   */\n    tag_218:\n        /* \"#utility.yul\":9443:9444   */\n      0x00\n        /* \"#utility.yul\":9468:9531   */\n      tag_220\n        /* \"#utility.yul\":9523:9530   */\n      dup9\n        /* \"#utility.yul\":9514:9520   */\n      dup3\n        /* \"#utility.yul\":9503:9512   */\n      dup10\n        /* \"#utility.yul\":9499:9521   */\n      add\n        /* \"#utility.yul\":9468:9531   */\n      tag_120\n      jump\t// in\n    tag_220:\n        /* \"#utility.yul\":9458:9531   */\n      swap6\n      pop\n        /* \"#utility.yul\":9414:9541   */\n      pop\n        /* \"#utility.yul\":9580:9582   */\n      0x20\n        /* \"#utility.yul\":9606:9669   */\n      tag_221\n        /* \"#utility.yul\":9661:9668   */\n      dup9\n        /* \"#utility.yul\":9652:9658   */\n      dup3\n        /* \"#utility.yul\":9641:9650   */\n      dup10\n        /* \"#utility.yul\":9637:9659   */\n      add\n        /* \"#utility.yul\":9606:9669   */\n      tag_123\n      jump\t// in\n    tag_221:\n        /* \"#utility.yul\":9596:9669   */\n      swap5\n      pop\n        /* \"#utility.yul\":9551:9679   */\n      pop\n        /* \"#utility.yul\":9718:9720   */\n      0x40\n        /* \"#utility.yul\":9744:9808   */\n      tag_222\n        /* \"#utility.yul\":9800:9807   */\n      dup9\n        /* \"#utility.yul\":9791:9797   */\n      dup3\n        /* \"#utility.yul\":9780:9789   */\n      dup10\n        /* \"#utility.yul\":9776:9798   */\n      add\n        /* \"#utility.yul\":9744:9808   */\n      tag_124\n      jump\t// in\n    tag_222:\n        /* \"#utility.yul\":9734:9808   */\n      swap4\n      pop\n        /* \"#utility.yul\":9689:9818   */\n      pop\n        /* \"#utility.yul\":9857:9859   */\n      0x60\n        /* \"#utility.yul\":9883:9947   */\n      tag_223\n        /* \"#utility.yul\":9939:9946   */\n      dup9\n        /* \"#utility.yul\":9930:9936   */\n      dup3\n        /* \"#utility.yul\":9919:9928   */\n      dup10\n        /* \"#utility.yul\":9915:9937   */\n      add\n        /* \"#utility.yul\":9883:9947   */\n      tag_124\n      jump\t// in\n    tag_223:\n        /* \"#utility.yul\":9873:9947   */\n      swap3\n      pop\n        /* \"#utility.yul\":9828:9957   */\n      pop\n        /* \"#utility.yul\":9996:9999   */\n      0x80\n        /* \"#utility.yul\":10023:10086   */\n      tag_224\n        /* \"#utility.yul\":10078:10085   */\n      dup9\n        /* \"#utility.yul\":10069:10075   */\n      dup3\n        /* \"#utility.yul\":10058:10067   */\n      dup10\n        /* \"#utility.yul\":10054:10076   */\n      add\n        /* \"#utility.yul\":10023:10086   */\n      tag_120\n      jump\t// in\n    tag_224:\n        /* \"#utility.yul\":10013:10086   */\n      swap2\n      pop\n        /* \"#utility.yul\":9967:10096   */\n      pop\n        /* \"#utility.yul\":9132:10103   */\n      swap3\n      swap6\n      pop\n      swap3\n      swap6\n      swap1\n      swap4\n      pop\n      jump\t// out\n        /* \"#utility.yul\":10109:11100   */\n    tag_86:\n        /* \"#utility.yul\":10148:10155   */\n      0x00\n        /* \"#utility.yul\":10171:10190   */\n      tag_226\n        /* \"#utility.yul\":10188:10189   */\n      dup3\n        /* \"#utility.yul\":10171:10190   */\n      tag_121\n      jump\t// in\n    tag_226:\n        /* \"#utility.yul\":10166:10190   */\n      swap2\n      pop\n        /* \"#utility.yul\":10204:10223   */\n      tag_227\n        /* \"#utility.yul\":10221:10222   */\n      dup4\n        /* \"#utility.yul\":10204:10223   */\n      tag_121\n      jump\t// in\n    tag_227:\n        /* \"#utility.yul\":10199:10223   */\n      swap3\n      pop\n        /* \"#utility.yul\":10405:10406   */\n      dup3\n        /* \"#utility.yul\":10337:10403   */\n      0x7fffffffffffffffffffffffffffffffffffffffffffffffffffffffffffffff\n        /* \"#utility.yul\":10333:10407   */\n      div\n        /* \"#utility.yul\":10330:10331   */\n      dup3\n        /* \"#utility.yul\":10327:10408   */\n      gt\n        /* \"#utility.yul\":10322:10323   */\n      0x00\n        /* \"#utility.yul\":10319:10320   */\n      dup5\n        /* \"#utility.yul\":10315:10324   */\n      sgt\n        /* \"#utility.yul\":10311:10312   */\n      0x00\n        /* \"#utility.yul\":10308:10309   */\n      dup5\n        /* \"#utility.yul\":10304:10313   */\n      sgt\n        /* \"#utility.yul\":10300:10325   */\n      and\n        /* \"#utility.yul\":10296:10409   */\n      and\n        /* \"#utility.yul\":10293:10432   */\n      iszero\n      tag_228\n      jumpi\n        /* \"#utility.yul\":10412:10430   */\n      tag_229\n      tag_109\n      jump\t// in\n    tag_229:\n        /* \"#utility.yul\":10293:10432   */\n    tag_228:\n        /* \"#utility.yul\":10616:10617   */\n      dup2\n        /* \"#utility.yul\":10548:10614   */\n      0x8000000000000000000000000000000000000000000000000000000000000000\n        /* \"#utility.yul\":10543:10618   */\n      sdiv\n        /* \"#utility.yul\":10540:10541   */\n      dup4\n        /* \"#utility.yul\":10536:10619   */\n      slt\n        /* \"#utility.yul\":10531:10532   */\n      0x00\n        /* \"#utility.yul\":10528:10529   */\n      dup5\n        /* \"#utility.yul\":10524:10533   */\n      slt\n        /* \"#utility.yul\":10520:10521   */\n      0x00\n        /* \"#utility.yul\":10517:10518   */\n      dup5\n        /* \"#utility.yul\":10513:10522   */\n      sgt\n        /* \"#utility.yul\":10509:10534   */\n      and\n        /* \"#utility.yul\":10505:10620   */\n      and\n        /* \"#utility.yul\":10502:10643   */\n      iszero\n      tag_230\n      jumpi\n        /* \"#utility.yul\":10623:10641   */\n      tag_231\n      tag_109\n      jump\t// in\n    tag_231:\n        /* \"#utility.yul\":10502:10643   */\n    tag_230:\n        /* \"#utility.yul\":10827:10828   */\n      dup3\n        /* \"#utility.yul\":10759:10825   */\n      0x8000000000000000000000000000000000000000000000000000000000000000\n        /* \"#utility.yul\":10754:10829   */\n      sdiv\n        /* \"#utility.yul\":10751:10752   */\n      dup3\n        /* \"#utility.yul\":10747:10830   */\n      slt\n        /* \"#utility.yul\":10742:10743   */\n      0x00\n        /* \"#utility.yul\":10739:10740   */\n      dup5\n        /* \"#utility.yul\":10735:10744   */\n      sgt\n        /* \"#utility.yul\":10731:10732   */\n      0x00\n        /* \"#utility.yul\":10728:10729   */\n      dup5\n        /* \"#utility.yul\":10724:10733   */\n      slt\n        /* \"#utility.yul\":10720:10745   */\n      and\n        /* \"#utility.yul\":10716:10831   */\n      and\n        /* \"#utility.yul\":10713:10854   */\n      iszero\n      tag_232\n      jumpi\n        /* \"#utility.yul\":10834:10852   */\n      tag_233\n      tag_109\n      jump\t// in\n    tag_233:\n        /* \"#utility.yul\":10713:10854   */\n    tag_232:\n        /* \"#utility.yul\":11037:11038   */\n      dup3\n        /* \"#utility.yul\":10969:11035   */\n      0x7fffffffffffffffffffffffffffffffffffffffffffffffffffffffffffffff\n        /* \"#utility.yul\":10964:11039   */\n      sdiv\n        /* \"#utility.yul\":10961:10962   */\n      dup3\n        /* \"#utility.yul\":10957:11040   */\n      slt\n        /* \"#utility.yul\":10952:10953   */\n      0x00\n        /* \"#utility.yul\":10949:10950   */\n      dup5\n        /* \"#utility.yul\":10945:10954   */\n      slt\n        /* \"#utility.yul\":10941:10942   */\n      0x00\n        /* \"#utility.yul\":10938:10939   */\n      dup5\n        /* \"#utility.yul\":10934:10943   */\n      slt\n        /* \"#utility.yul\":10930:10955   */\n      and\n        /* \"#utility.yul\":10926:11041   */\n      and\n        /* \"#utility.yul\":10923:11064   */\n      iszero\n      tag_234\n      jumpi\n        /* \"#utility.yul\":11044:11062   */\n      tag_235\n      tag_109\n      jump\t// in\n    tag_235:\n        /* \"#utility.yul\":10923:11064   */\n    tag_234:\n        /* \"#utility.yul\":11092:11093   */\n      dup3\n        /* \"#utility.yul\":11089:11090   */\n      dup3\n        /* \"#utility.yul\":11085:11094   */\n      mul\n        /* \"#utility.yul\":11074:11094   */\n      swap1\n      pop\n        /* \"#utility.yul\":10109:11100   */\n      swap3\n      swap2\n      pop\n      pop\n      jump\t// out\n\n    auxdata: 0xa26469706673582212201e4b754f164d6ce3537c8999d9652c31de734333803b224f73c20435932c3f8e64736f6c63430008080033\n}\n",
				"bytecode": {
					"linkReferences": {},
					"object": "60806040526802b5e3af16b188000060005534801561001d57600080fd5b5033600360006101000a81548173ffffffffffffffffffffffffffffffffffffffff021916908373ffffffffffffffffffffffffffffffffffffffff160217905550610d708061006e6000396000f3fe6080604052600436106100555760003560e01c80633430a88c1461005a5780633ccfd60b146100855780633e47d6f31461009c5780638da5cb5b146100d9578063b60d428814610104578063dc0d3dff1461010e575b600080fd5b34801561006657600080fd5b5061006f61014b565b60405161007c91906106c2565b60405180910390f35b34801561009157600080fd5b5061009a610151565b005b3480156100a857600080fd5b506100c360048036038101906100be9190610740565b61039d565b6040516100d091906106c2565b60405180910390f35b3480156100e557600080fd5b506100ee6103b5565b6040516100fb919061077c565b60405180910390f35b61010c6103db565b005b34801561011a57600080fd5b50610135600480360381019061013091906107c3565b6104d1565b604051610142919061077c565b60405180910390f35b60005481565b600360009054906101000a900473ffffffffffffffffffffffffffffffffffffffff1673ffffffffffffffffffffffffffffffffffffffff163373ffffffffffffffffffffffffffffffffffffffff16146101e1576040517f08c379a00000000000000000000000000000000000000000000000000000000081526004016101d89061084d565b60405180910390fd5b60005b60018054905081111561028d576000600182815481106102075761020661086d565b5b9060005260206000200160009054906101000a900473ffffffffffffffffffffffffffffffffffffffff1690506000600260008373ffffffffffffffffffffffffffffffffffffffff1673ffffffffffffffffffffffffffffffffffffffff16815260200190815260200160002081905550508080610285906108cb565b9150506101e4565b50600067ffffffffffffffff8111156102a9576102a8610914565b5b6040519080825280602002602001820160405280156102d75781602001602082028036833780820191505090505b50600190805190602001906102ed929190610602565b5060003373ffffffffffffffffffffffffffffffffffffffff164760405161031490610974565b60006040518083038185875af1925050503d8060008114610351576040519150601f19603f3d011682016040523d82523d6000602084013e610356565b606091505b505090508061039a576040517f08c379a0000000000000000000000000000000000000000000000000000000008152600401610391906109d5565b60405180910390fd5b50565b60026020528060005260406000206000915090505481565b600360009054906101000a900473ffffffffffffffffffffffffffffffffffffffff1681565b6000546103e734610510565b1015610428576040517f08c379a000000000000000000000000000000000000000000000000000000000815260040161041f90610a41565b60405180910390fd5b6001339080600181540180825580915050600190039060005260206000200160009091909190916101000a81548173ffffffffffffffffffffffffffffffffffffffff021916908373ffffffffffffffffffffffffffffffffffffffff16021790555034600260003373ffffffffffffffffffffffffffffffffffffffff1673ffffffffffffffffffffffffffffffffffffffff16815260200190815260200160002081905550565b600181815481106104e157600080fd5b906000526020600020016000915054906101000a900473ffffffffffffffffffffffffffffffffffffffff1681565b60008061051b61054a565b90506000670de0b6b3a764000084836105349190610a61565b61053e9190610aea565b90508092505050919050565b600080738a753747a1fa494ec906ce90e9f37563a8af630e905060008173ffffffffffffffffffffffffffffffffffffffff1663feaf968c6040518163ffffffff1660e01b815260040160a06040518083038186803b1580156105ac57600080fd5b505afa1580156105c0573d6000803e3d6000fd5b505050506040513d601f19601f820116820180604052508101906105e49190610ba8565b5050509150506402540be400816105fb9190610c23565b9250505090565b82805482825590600052602060002090810192821561067b579160200282015b8281111561067a5782518260006101000a81548173ffffffffffffffffffffffffffffffffffffffff021916908373ffffffffffffffffffffffffffffffffffffffff16021790555091602001919060010190610622565b5b509050610688919061068c565b5090565b5b808211156106a557600081600090555060010161068d565b5090565b6000819050919050565b6106bc816106a9565b82525050565b60006020820190506106d760008301846106b3565b92915050565b600080fd5b600073ffffffffffffffffffffffffffffffffffffffff82169050919050565b600061070d826106e2565b9050919050565b61071d81610702565b811461072857600080fd5b50565b60008135905061073a81610714565b92915050565b600060208284031215610756576107556106dd565b5b60006107648482850161072b565b91505092915050565b61077681610702565b82525050565b6000602082019050610791600083018461076d565b92915050565b6107a0816106a9565b81146107ab57600080fd5b50565b6000813590506107bd81610797565b92915050565b6000602082840312156107d9576107d86106dd565b5b60006107e7848285016107ae565b91505092915050565b600082825260208201905092915050565b7f53656e646572206973206e6f74204f776e657221000000000000000000000000600082015250565b60006108376014836107f0565b915061084282610801565b602082019050919050565b600060208201905081810360008301526108668161082a565b9050919050565b7f4e487b7100000000000000000000000000000000000000000000000000000000600052603260045260246000fd5b7f4e487b7100000000000000000000000000000000000000000000000000000000600052601160045260246000fd5b60006108d6826106a9565b91507fffffffffffffffffffffffffffffffffffffffffffffffffffffffffffffffff8214156109095761090861089c565b5b600182019050919050565b7f4e487b7100000000000000000000000000000000000000000000000000000000600052604160045260246000fd5b600081905092915050565b50565b600061095e600083610943565b91506109698261094e565b600082019050919050565b600061097f82610951565b9150819050919050565b7f43616c6c204661696c6564000000000000000000000000000000000000000000600082015250565b60006109bf600b836107f0565b91506109ca82610989565b602082019050919050565b600060208201905081810360008301526109ee816109b2565b9050919050565b7f4469646e27742073656e6420656e6f7567680000000000000000000000000000600082015250565b6000610a2b6012836107f0565b9150610a36826109f5565b602082019050919050565b60006020820190508181036000830152610a5a81610a1e565b9050919050565b6000610a6c826106a9565b9150610a77836106a9565b9250817fffffffffffffffffffffffffffffffffffffffffffffffffffffffffffffffff0483118215151615610ab057610aaf61089c565b5b828202905092915050565b7f4e487b7100000000000000000000000000000000000000000000000000000000600052601260045260246000fd5b6000610af5826106a9565b9150610b00836106a9565b925082610b1057610b0f610abb565b5b828204905092915050565b600069ffffffffffffffffffff82169050919050565b610b3a81610b1b565b8114610b4557600080fd5b50565b600081519050610b5781610b31565b92915050565b6000819050919050565b610b7081610b5d565b8114610b7b57600080fd5b50565b600081519050610b8d81610b67565b92915050565b600081519050610ba281610797565b92915050565b600080600080600060a08688031215610bc457610bc36106dd565b5b6000610bd288828901610b48565b9550506020610be388828901610b7e565b9450506040610bf488828901610b93565b9350506060610c0588828901610b93565b9250506080610c1688828901610b48565b9150509295509295909350565b6000610c2e82610b5d565b9150610c3983610b5d565b9250827f7fffffffffffffffffffffffffffffffffffffffffffffffffffffffffffffff0482116000841360008413161615610c7857610c7761089c565b5b817f80000000000000000000000000000000000000000000000000000000000000000583126000841260008413161615610cb557610cb461089c565b5b827f80000000000000000000000000000000000000000000000000000000000000000582126000841360008412161615610cf257610cf161089c565b5b827f7fffffffffffffffffffffffffffffffffffffffffffffffffffffffffffffff0582126000841260008412161615610d2f57610d2e61089c565b5b82820290509291505056fea26469706673582212201e4b754f164d6ce3537c8999d9652c31de734333803b224f73c20435932c3f8e64736f6c63430008080033",
					"opcodes": "PUSH1 0x80 PUSH1 0x40 MSTORE PUSH9 0x2B5E3AF16B1880000 PUSH1 0x0 SSTORE CALLVALUE DUP1 ISZERO PUSH2 0x1D JUMPI PUSH1 0x0 DUP1 REVERT JUMPDEST POP CALLER PUSH1 0x3 PUSH1 0x0 PUSH2 0x100 EXP DUP2 SLOAD DUP2 PUSH20 0xFFFFFFFFFFFFFFFFFFFFFFFFFFFFFFFFFFFFFFFF MUL NOT AND SWAP1 DUP4 PUSH20 0xFFFFFFFFFFFFFFFFFFFFFFFFFFFFFFFFFFFFFFFF AND MUL OR SWAP1 SSTORE POP PUSH2 0xD70 DUP1 PUSH2 0x6E PUSH1 0x0 CODECOPY PUSH1 0x0 RETURN INVALID PUSH1 0x80 PUSH1 0x40 MSTORE PUSH1 0x4 CALLDATASIZE LT PUSH2 0x55 JUMPI PUSH1 0x0 CALLDATALOAD PUSH1 0xE0 SHR DUP1 PUSH4 0x3430A88C EQ PUSH2 0x5A JUMPI DUP1 PUSH4 0x3CCFD60B EQ PUSH2 0x85 JUMPI DUP1 PUSH4 0x3E47D6F3 EQ PUSH2 0x9C JUMPI DUP1 PUSH4 0x8DA5CB5B EQ PUSH2 0xD9 JUMPI DUP1 PUSH4 0xB60D4288 EQ PUSH2 0x104 JUMPI DUP1 PUSH4 0xDC0D3DFF EQ PUSH2 0x10E JUMPI JUMPDEST PUSH1 0x0 DUP1 REVERT JUMPDEST CALLVALUE DUP1 ISZERO PUSH2 0x66 JUMPI PUSH1 0x0 DUP1 REVERT JUMPDEST POP PUSH2 0x6F PUSH2 0x14B JUMP JUMPDEST PUSH1 0x40 MLOAD PUSH2 0x7C SWAP2 SWAP1 PUSH2 0x6C2 JUMP JUMPDEST PUSH1 0x40 MLOAD DUP1 SWAP2 SUB SWAP1 RETURN JUMPDEST CALLVALUE DUP1 ISZERO PUSH2 0x91 JUMPI PUSH1 0x0 DUP1 REVERT JUMPDEST POP PUSH2 0x9A PUSH2 0x151 JUMP JUMPDEST STOP JUMPDEST CALLVALUE DUP1 ISZERO PUSH2 0xA8 JUMPI PUSH1 0x0 DUP1 REVERT JUMPDEST POP PUSH2 0xC3 PUSH1 0x4 DUP1 CALLDATASIZE SUB DUP2 ADD SWAP1 PUSH2 0xBE SWAP2 SWAP1 PUSH2 0x740 JUMP JUMPDEST PUSH2 0x39D JUMP JUMPDEST PUSH1 0x40 MLOAD PUSH2 0xD0 SWAP2 SWAP1 PUSH2 0x6C2 JUMP JUMPDEST PUSH1 0x40 MLOAD DUP1 SWAP2 SUB SWAP1 RETURN JUMPDEST CALLVALUE DUP1 ISZERO PUSH2 0xE5 JUMPI PUSH1 0x0 DUP1 REVERT JUMPDEST POP PUSH2 0xEE PUSH2 0x3B5 JUMP JUMPDEST PUSH1 0x40 MLOAD PUSH2 0xFB SWAP2 SWAP1 PUSH2 0x77C JUMP JUMPDEST PUSH1 0x40 MLOAD DUP1 SWAP2 SUB SWAP1 RETURN JUMPDEST PUSH2 0x10C PUSH2 0x3DB JUMP JUMPDEST STOP JUMPDEST CALLVALUE DUP1 ISZERO PUSH2 0x11A JUMPI PUSH1 0x0 DUP1 REVERT JUMPDEST POP PUSH2 0x135 PUSH1 0x4 DUP1 CALLDATASIZE SUB DUP2 ADD SWAP1 PUSH2 0x130 SWAP2 SWAP1 PUSH2 0x7C3 JUMP JUMPDEST PUSH2 0x4D1 JUMP JUMPDEST PUSH1 0x40 MLOAD PUSH2 0x142 SWAP2 SWAP1 PUSH2 0x77C JUMP JUMPDEST PUSH1 0x40 MLOAD DUP1 SWAP2 SUB SWAP1 RETURN JUMPDEST PUSH1 0x0 SLOAD DUP2 JUMP JUMPDEST PUSH1 0x3 PUSH1 0x0 SWAP1 SLOAD SWAP1 PUSH2 0x100 EXP SWAP1 DIV PUSH20 0xFFFFFFFFFFFFFFFFFFFFFFFFFFFFFFFFFFFFFFFF AND PUSH20 0xFFFFFFFFFFFFFFFFFFFFFFFFFFFFFFFFFFFFFFFF AND CALLER PUSH20 0xFFFFFFFFFFFFFFFFFFFFFFFFFFFFFFFFFFFFFFFF AND EQ PUSH2 0x1E1 JUMPI PUSH1 0x40 MLOAD PUSH32 0x8C379A000000000000000000000000000000000000000000000000000000000 DUP2 MSTORE PUSH1 0x4 ADD PUSH2 0x1D8 SWAP1 PUSH2 0x84D JUMP JUMPDEST PUSH1 0x40 MLOAD DUP1 SWAP2 SUB SWAP1 REVERT JUMPDEST PUSH1 0x0 JUMPDEST PUSH1 0x1 DUP1 SLOAD SWAP1 POP DUP2 GT ISZERO PUSH2 0x28D JUMPI PUSH1 0x0 PUSH1 0x1 DUP3 DUP2 SLOAD DUP2 LT PUSH2 0x207 JUMPI PUSH2 0x206 PUSH2 0x86D JUMP JUMPDEST JUMPDEST SWAP1 PUSH1 0x0 MSTORE PUSH1 0x20 PUSH1 0x0 KECCAK256 ADD PUSH1 0x0 SWAP1 SLOAD SWAP1 PUSH2 0x100 EXP SWAP1 DIV PUSH20 0xFFFFFFFFFFFFFFFFFFFFFFFFFFFFFFFFFFFFFFFF AND SWAP1 POP PUSH1 0x0 PUSH1 0x2 PUSH1 0x0 DUP4 PUSH20 0xFFFFFFFFFFFFFFFFFFFFFFFFFFFFFFFFFFFFFFFF AND PUSH20 0xFFFFFFFFFFFFFFFFFFFFFFFFFFFFFFFFFFFFFFFF AND DUP2 MSTORE PUSH1 0x20 ADD SWAP1 DUP2 MSTORE PUSH1 0x20 ADD PUSH1 0x0 KECCAK256 DUP2 SWAP1 SSTORE POP POP DUP1 DUP1 PUSH2 0x285 SWAP1 PUSH2 0x8CB JUMP JUMPDEST SWAP2 POP POP PUSH2 0x1E4 JUMP JUMPDEST POP PUSH1 0x0 PUSH8 0xFFFFFFFFFFFFFFFF DUP2 GT ISZERO PUSH2 0x2A9 JUMPI PUSH2 0x2A8 PUSH2 0x914 JUMP JUMPDEST JUMPDEST PUSH1 0x40 MLOAD SWAP1 DUP1 DUP3 MSTORE DUP1 PUSH1 0x20 MUL PUSH1 0x20 ADD DUP3 ADD PUSH1 0x40 MSTORE DUP1 ISZERO PUSH2 0x2D7 JUMPI DUP2 PUSH1 0x20 ADD PUSH1 0x20 DUP3 MUL DUP1 CALLDATASIZE DUP4 CALLDATACOPY DUP1 DUP3 ADD SWAP2 POP POP SWAP1 POP JUMPDEST POP PUSH1 0x1 SWAP1 DUP1 MLOAD SWAP1 PUSH1 0x20 ADD SWAP1 PUSH2 0x2ED SWAP3 SWAP2 SWAP1 PUSH2 0x602 JUMP JUMPDEST POP PUSH1 0x0 CALLER PUSH20 0xFFFFFFFFFFFFFFFFFFFFFFFFFFFFFFFFFFFFFFFF AND SELFBALANCE PUSH1 0x40 MLOAD PUSH2 0x314 SWAP1 PUSH2 0x974 JUMP JUMPDEST PUSH1 0x0 PUSH1 0x40 MLOAD DUP1 DUP4 SUB DUP2 DUP6 DUP8 GAS CALL SWAP3 POP POP POP RETURNDATASIZE DUP1 PUSH1 0x0 DUP2 EQ PUSH2 0x351 JUMPI PUSH1 0x40 MLOAD SWAP2 POP PUSH1 0x1F NOT PUSH1 0x3F RETURNDATASIZE ADD AND DUP3 ADD PUSH1 0x40 MSTORE RETURNDATASIZE DUP3 MSTORE RETURNDATASIZE PUSH1 0x0 PUSH1 0x20 DUP5 ADD RETURNDATACOPY PUSH2 0x356 JUMP JUMPDEST PUSH1 0x60 SWAP2 POP JUMPDEST POP POP SWAP1 POP DUP1 PUSH2 0x39A JUMPI PUSH1 0x40 MLOAD PUSH32 0x8C379A000000000000000000000000000000000000000000000000000000000 DUP2 MSTORE PUSH1 0x4 ADD PUSH2 0x391 SWAP1 PUSH2 0x9D5 JUMP JUMPDEST PUSH1 0x40 MLOAD DUP1 SWAP2 SUB SWAP1 REVERT JUMPDEST POP JUMP JUMPDEST PUSH1 0x2 PUSH1 0x20 MSTORE DUP1 PUSH1 0x0 MSTORE PUSH1 0x40 PUSH1 0x0 KECCAK256 PUSH1 0x0 SWAP2 POP SWAP1 POP SLOAD DUP2 JUMP JUMPDEST PUSH1 0x3 PUSH1 0x0 SWAP1 SLOAD SWAP1 PUSH2 0x100 EXP SWAP1 DIV PUSH20 0xFFFFFFFFFFFFFFFFFFFFFFFFFFFFFFFFFFFFFFFF AND DUP2 JUMP JUMPDEST PUSH1 0x0 SLOAD PUSH2 0x3E7 CALLVALUE PUSH2 0x510 JUMP JUMPDEST LT ISZERO PUSH2 0x428 JUMPI PUSH1 0x40 MLOAD PUSH32 0x8C379A000000000000000000000000000000000000000000000000000000000 DUP2 MSTORE PUSH1 0x4 ADD PUSH2 0x41F SWAP1 PUSH2 0xA41 JUMP JUMPDEST PUSH1 0x40 MLOAD DUP1 SWAP2 SUB SWAP1 REVERT JUMPDEST PUSH1 0x1 CALLER SWAP1 DUP1 PUSH1 0x1 DUP2 SLOAD ADD DUP1 DUP3 SSTORE DUP1 SWAP2 POP POP PUSH1 0x1 SWAP1 SUB SWAP1 PUSH1 0x0 MSTORE PUSH1 0x20 PUSH1 0x0 KECCAK256 ADD PUSH1 0x0 SWAP1 SWAP2 SWAP1 SWAP2 SWAP1 SWAP2 PUSH2 0x100 EXP DUP2 SLOAD DUP2 PUSH20 0xFFFFFFFFFFFFFFFFFFFFFFFFFFFFFFFFFFFFFFFF MUL NOT AND SWAP1 DUP4 PUSH20 0xFFFFFFFFFFFFFFFFFFFFFFFFFFFFFFFFFFFFFFFF AND MUL OR SWAP1 SSTORE POP CALLVALUE PUSH1 0x2 PUSH1 0x0 CALLER PUSH20 0xFFFFFFFFFFFFFFFFFFFFFFFFFFFFFFFFFFFFFFFF AND PUSH20 0xFFFFFFFFFFFFFFFFFFFFFFFFFFFFFFFFFFFFFFFF AND DUP2 MSTORE PUSH1 0x20 ADD SWAP1 DUP2 MSTORE PUSH1 0x20 ADD PUSH1 0x0 KECCAK256 DUP2 SWAP1 SSTORE POP JUMP JUMPDEST PUSH1 0x1 DUP2 DUP2 SLOAD DUP2 LT PUSH2 0x4E1 JUMPI PUSH1 0x0 DUP1 REVERT JUMPDEST SWAP1 PUSH1 0x0 MSTORE PUSH1 0x20 PUSH1 0x0 KECCAK256 ADD PUSH1 0x0 SWAP2 POP SLOAD SWAP1 PUSH2 0x100 EXP SWAP1 DIV PUSH20 0xFFFFFFFFFFFFFFFFFFFFFFFFFFFFFFFFFFFFFFFF AND DUP2 JUMP JUMPDEST PUSH1 0x0 DUP1 PUSH2 0x51B PUSH2 0x54A JUMP JUMPDEST SWAP1 POP PUSH1 0x0 PUSH8 0xDE0B6B3A7640000 DUP5 DUP4 PUSH2 0x534 SWAP2 SWAP1 PUSH2 0xA61 JUMP JUMPDEST PUSH2 0x53E SWAP2 SWAP1 PUSH2 0xAEA JUMP JUMPDEST SWAP1 POP DUP1 SWAP3 POP POP POP SWAP2 SWAP1 POP JUMP JUMPDEST PUSH1 0x0 DUP1 PUSH20 0x8A753747A1FA494EC906CE90E9F37563A8AF630E SWAP1 POP PUSH1 0x0 DUP2 PUSH20 0xFFFFFFFFFFFFFFFFFFFFFFFFFFFFFFFFFFFFFFFF AND PUSH4 0xFEAF968C PUSH1 0x40 MLOAD DUP2 PUSH4 0xFFFFFFFF AND PUSH1 0xE0 SHL DUP2 MSTORE PUSH1 0x4 ADD PUSH1 0xA0 PUSH1 0x40 MLOAD DUP1 DUP4 SUB DUP2 DUP7 DUP1 EXTCODESIZE ISZERO DUP1 ISZERO PUSH2 0x5AC JUMPI PUSH1 0x0 DUP1 REVERT JUMPDEST POP GAS STATICCALL ISZERO DUP1 ISZERO PUSH2 0x5C0 JUMPI RETURNDATASIZE PUSH1 0x0 DUP1 RETURNDATACOPY RETURNDATASIZE PUSH1 0x0 REVERT JUMPDEST POP POP POP POP PUSH1 0x40 MLOAD RETURNDATASIZE PUSH1 0x1F NOT PUSH1 0x1F DUP3 ADD AND DUP3 ADD DUP1 PUSH1 0x40 MSTORE POP DUP2 ADD SWAP1 PUSH2 0x5E4 SWAP2 SWAP1 PUSH2 0xBA8 JUMP JUMPDEST POP POP POP SWAP2 POP POP PUSH5 0x2540BE400 DUP2 PUSH2 0x5FB SWAP2 SWAP1 PUSH2 0xC23 JUMP JUMPDEST SWAP3 POP POP POP SWAP1 JUMP JUMPDEST DUP3 DUP1 SLOAD DUP3 DUP3 SSTORE SWAP1 PUSH1 0x0 MSTORE PUSH1 0x20 PUSH1 0x0 KECCAK256 SWAP1 DUP2 ADD SWAP3 DUP3 ISZERO PUSH2 0x67B JUMPI SWAP2 PUSH1 0x20 MUL DUP3 ADD JUMPDEST DUP3 DUP2 GT ISZERO PUSH2 0x67A JUMPI DUP3 MLOAD DUP3 PUSH1 0x0 PUSH2 0x100 EXP DUP2 SLOAD DUP2 PUSH20 0xFFFFFFFFFFFFFFFFFFFFFFFFFFFFFFFFFFFFFFFF MUL NOT AND SWAP1 DUP4 PUSH20 0xFFFFFFFFFFFFFFFFFFFFFFFFFFFFFFFFFFFFFFFF AND MUL OR SWAP1 SSTORE POP SWAP2 PUSH1 0x20 ADD SWAP2 SWAP1 PUSH1 0x1 ADD SWAP1 PUSH2 0x622 JUMP JUMPDEST JUMPDEST POP SWAP1 POP PUSH2 0x688 SWAP2 SWAP1 PUSH2 0x68C JUMP JUMPDEST POP SWAP1 JUMP JUMPDEST JUMPDEST DUP1 DUP3 GT ISZERO PUSH2 0x6A5 JUMPI PUSH1 0x0 DUP2 PUSH1 0x0 SWAP1 SSTORE POP PUSH1 0x1 ADD PUSH2 0x68D JUMP JUMPDEST POP SWAP1 JUMP JUMPDEST PUSH1 0x0 DUP2 SWAP1 POP SWAP2 SWAP1 POP JUMP JUMPDEST PUSH2 0x6BC DUP2 PUSH2 0x6A9 JUMP JUMPDEST DUP3 MSTORE POP POP JUMP JUMPDEST PUSH1 0x0 PUSH1 0x20 DUP3 ADD SWAP1 POP PUSH2 0x6D7 PUSH1 0x0 DUP4 ADD DUP5 PUSH2 0x6B3 JUMP JUMPDEST SWAP3 SWAP2 POP POP JUMP JUMPDEST PUSH1 0x0 DUP1 REVERT JUMPDEST PUSH1 0x0 PUSH20 0xFFFFFFFFFFFFFFFFFFFFFFFFFFFFFFFFFFFFFFFF DUP3 AND SWAP1 POP SWAP2 SWAP1 POP JUMP JUMPDEST PUSH1 0x0 PUSH2 0x70D DUP3 PUSH2 0x6E2 JUMP JUMPDEST SWAP1 POP SWAP2 SWAP1 POP JUMP JUMPDEST PUSH2 0x71D DUP2 PUSH2 0x702 JUMP JUMPDEST DUP2 EQ PUSH2 0x728 JUMPI PUSH1 0x0 DUP1 REVERT JUMPDEST POP JUMP JUMPDEST PUSH1 0x0 DUP2 CALLDATALOAD SWAP1 POP PUSH2 0x73A DUP2 PUSH2 0x714 JUMP JUMPDEST SWAP3 SWAP2 POP POP JUMP JUMPDEST PUSH1 0x0 PUSH1 0x20 DUP3 DUP5 SUB SLT ISZERO PUSH2 0x756 JUMPI PUSH2 0x755 PUSH2 0x6DD JUMP JUMPDEST JUMPDEST PUSH1 0x0 PUSH2 0x764 DUP5 DUP3 DUP6 ADD PUSH2 0x72B JUMP JUMPDEST SWAP2 POP POP SWAP3 SWAP2 POP POP JUMP JUMPDEST PUSH2 0x776 DUP2 PUSH2 0x702 JUMP JUMPDEST DUP3 MSTORE POP POP JUMP JUMPDEST PUSH1 0x0 PUSH1 0x20 DUP3 ADD SWAP1 POP PUSH2 0x791 PUSH1 0x0 DUP4 ADD DUP5 PUSH2 0x76D JUMP JUMPDEST SWAP3 SWAP2 POP POP JUMP JUMPDEST PUSH2 0x7A0 DUP2 PUSH2 0x6A9 JUMP JUMPDEST DUP2 EQ PUSH2 0x7AB JUMPI PUSH1 0x0 DUP1 REVERT JUMPDEST POP JUMP JUMPDEST PUSH1 0x0 DUP2 CALLDATALOAD SWAP1 POP PUSH2 0x7BD DUP2 PUSH2 0x797 JUMP JUMPDEST SWAP3 SWAP2 POP POP JUMP JUMPDEST PUSH1 0x0 PUSH1 0x20 DUP3 DUP5 SUB SLT ISZERO PUSH2 0x7D9 JUMPI PUSH2 0x7D8 PUSH2 0x6DD JUMP JUMPDEST JUMPDEST PUSH1 0x0 PUSH2 0x7E7 DUP5 DUP3 DUP6 ADD PUSH2 0x7AE JUMP JUMPDEST SWAP2 POP POP SWAP3 SWAP2 POP POP JUMP JUMPDEST PUSH1 0x0 DUP3 DUP3 MSTORE PUSH1 0x20 DUP3 ADD SWAP1 POP SWAP3 SWAP2 POP POP JUMP JUMPDEST PUSH32 0x53656E646572206973206E6F74204F776E657221000000000000000000000000 PUSH1 0x0 DUP3 ADD MSTORE POP JUMP JUMPDEST PUSH1 0x0 PUSH2 0x837 PUSH1 0x14 DUP4 PUSH2 0x7F0 JUMP JUMPDEST SWAP2 POP PUSH2 0x842 DUP3 PUSH2 0x801 JUMP JUMPDEST PUSH1 0x20 DUP3 ADD SWAP1 POP SWAP2 SWAP1 POP JUMP JUMPDEST PUSH1 0x0 PUSH1 0x20 DUP3 ADD SWAP1 POP DUP2 DUP2 SUB PUSH1 0x0 DUP4 ADD MSTORE PUSH2 0x866 DUP2 PUSH2 0x82A JUMP JUMPDEST SWAP1 POP SWAP2 SWAP1 POP JUMP JUMPDEST PUSH32 0x4E487B7100000000000000000000000000000000000000000000000000000000 PUSH1 0x0 MSTORE PUSH1 0x32 PUSH1 0x4 MSTORE PUSH1 0x24 PUSH1 0x0 REVERT JUMPDEST PUSH32 0x4E487B7100000000000000000000000000000000000000000000000000000000 PUSH1 0x0 MSTORE PUSH1 0x11 PUSH1 0x4 MSTORE PUSH1 0x24 PUSH1 0x0 REVERT JUMPDEST PUSH1 0x0 PUSH2 0x8D6 DUP3 PUSH2 0x6A9 JUMP JUMPDEST SWAP2 POP PUSH32 0xFFFFFFFFFFFFFFFFFFFFFFFFFFFFFFFFFFFFFFFFFFFFFFFFFFFFFFFFFFFFFFFF DUP3 EQ ISZERO PUSH2 0x909 JUMPI PUSH2 0x908 PUSH2 0x89C JUMP JUMPDEST JUMPDEST PUSH1 0x1 DUP3 ADD SWAP1 POP SWAP2 SWAP1 POP JUMP JUMPDEST PUSH32 0x4E487B7100000000000000000000000000000000000000000000000000000000 PUSH1 0x0 MSTORE PUSH1 0x41 PUSH1 0x4 MSTORE PUSH1 0x24 PUSH1 0x0 REVERT JUMPDEST PUSH1 0x0 DUP2 SWAP1 POP SWAP3 SWAP2 POP POP JUMP JUMPDEST POP JUMP JUMPDEST PUSH1 0x0 PUSH2 0x95E PUSH1 0x0 DUP4 PUSH2 0x943 JUMP JUMPDEST SWAP2 POP PUSH2 0x969 DUP3 PUSH2 0x94E JUMP JUMPDEST PUSH1 0x0 DUP3 ADD SWAP1 POP SWAP2 SWAP1 POP JUMP JUMPDEST PUSH1 0x0 PUSH2 0x97F DUP3 PUSH2 0x951 JUMP JUMPDEST SWAP2 POP DUP2 SWAP1 POP SWAP2 SWAP1 POP JUMP JUMPDEST PUSH32 0x43616C6C204661696C6564000000000000000000000000000000000000000000 PUSH1 0x0 DUP3 ADD MSTORE POP JUMP JUMPDEST PUSH1 0x0 PUSH2 0x9BF PUSH1 0xB DUP4 PUSH2 0x7F0 JUMP JUMPDEST SWAP2 POP PUSH2 0x9CA DUP3 PUSH2 0x989 JUMP JUMPDEST PUSH1 0x20 DUP3 ADD SWAP1 POP SWAP2 SWAP1 POP JUMP JUMPDEST PUSH1 0x0 PUSH1 0x20 DUP3 ADD SWAP1 POP DUP2 DUP2 SUB PUSH1 0x0 DUP4 ADD MSTORE PUSH2 0x9EE DUP2 PUSH2 0x9B2 JUMP JUMPDEST SWAP1 POP SWAP2 SWAP1 POP JUMP JUMPDEST PUSH32 0x4469646E27742073656E6420656E6F7567680000000000000000000000000000 PUSH1 0x0 DUP3 ADD MSTORE POP JUMP JUMPDEST PUSH1 0x0 PUSH2 0xA2B PUSH1 0x12 DUP4 PUSH2 0x7F0 JUMP JUMPDEST SWAP2 POP PUSH2 0xA36 DUP3 PUSH2 0x9F5 JUMP JUMPDEST PUSH1 0x20 DUP3 ADD SWAP1 POP SWAP2 SWAP1 POP JUMP JUMPDEST PUSH1 0x0 PUSH1 0x20 DUP3 ADD SWAP1 POP DUP2 DUP2 SUB PUSH1 0x0 DUP4 ADD MSTORE PUSH2 0xA5A DUP2 PUSH2 0xA1E JUMP JUMPDEST SWAP1 POP SWAP2 SWAP1 POP JUMP JUMPDEST PUSH1 0x0 PUSH2 0xA6C DUP3 PUSH2 0x6A9 JUMP JUMPDEST SWAP2 POP PUSH2 0xA77 DUP4 PUSH2 0x6A9 JUMP JUMPDEST SWAP3 POP DUP2 PUSH32 0xFFFFFFFFFFFFFFFFFFFFFFFFFFFFFFFFFFFFFFFFFFFFFFFFFFFFFFFFFFFFFFFF DIV DUP4 GT DUP3 ISZERO ISZERO AND ISZERO PUSH2 0xAB0 JUMPI PUSH2 0xAAF PUSH2 0x89C JUMP JUMPDEST JUMPDEST DUP3 DUP3 MUL SWAP1 POP SWAP3 SWAP2 POP POP JUMP JUMPDEST PUSH32 0x4E487B7100000000000000000000000000000000000000000000000000000000 PUSH1 0x0 MSTORE PUSH1 0x12 PUSH1 0x4 MSTORE PUSH1 0x24 PUSH1 0x0 REVERT JUMPDEST PUSH1 0x0 PUSH2 0xAF5 DUP3 PUSH2 0x6A9 JUMP JUMPDEST SWAP2 POP PUSH2 0xB00 DUP4 PUSH2 0x6A9 JUMP JUMPDEST SWAP3 POP DUP3 PUSH2 0xB10 JUMPI PUSH2 0xB0F PUSH2 0xABB JUMP JUMPDEST JUMPDEST DUP3 DUP3 DIV SWAP1 POP SWAP3 SWAP2 POP POP JUMP JUMPDEST PUSH1 0x0 PUSH10 0xFFFFFFFFFFFFFFFFFFFF DUP3 AND SWAP1 POP SWAP2 SWAP1 POP JUMP JUMPDEST PUSH2 0xB3A DUP2 PUSH2 0xB1B JUMP JUMPDEST DUP2 EQ PUSH2 0xB45 JUMPI PUSH1 0x0 DUP1 REVERT JUMPDEST POP JUMP JUMPDEST PUSH1 0x0 DUP2 MLOAD SWAP1 POP PUSH2 0xB57 DUP2 PUSH2 0xB31 JUMP JUMPDEST SWAP3 SWAP2 POP POP JUMP JUMPDEST PUSH1 0x0 DUP2 SWAP1 POP SWAP2 SWAP1 POP JUMP JUMPDEST PUSH2 0xB70 DUP2 PUSH2 0xB5D JUMP JUMPDEST DUP2 EQ PUSH2 0xB7B JUMPI PUSH1 0x0 DUP1 REVERT JUMPDEST POP JUMP JUMPDEST PUSH1 0x0 DUP2 MLOAD SWAP1 POP PUSH2 0xB8D DUP2 PUSH2 0xB67 JUMP JUMPDEST SWAP3 SWAP2 POP POP JUMP JUMPDEST PUSH1 0x0 DUP2 MLOAD SWAP1 POP PUSH2 0xBA2 DUP2 PUSH2 0x797 JUMP JUMPDEST SWAP3 SWAP2 POP POP JUMP JUMPDEST PUSH1 0x0 DUP1 PUSH1 0x0 DUP1 PUSH1 0x0 PUSH1 0xA0 DUP7 DUP9 SUB SLT ISZERO PUSH2 0xBC4 JUMPI PUSH2 0xBC3 PUSH2 0x6DD JUMP JUMPDEST JUMPDEST PUSH1 0x0 PUSH2 0xBD2 DUP9 DUP3 DUP10 ADD PUSH2 0xB48 JUMP JUMPDEST SWAP6 POP POP PUSH1 0x20 PUSH2 0xBE3 DUP9 DUP3 DUP10 ADD PUSH2 0xB7E JUMP JUMPDEST SWAP5 POP POP PUSH1 0x40 PUSH2 0xBF4 DUP9 DUP3 DUP10 ADD PUSH2 0xB93 JUMP JUMPDEST SWAP4 POP POP PUSH1 0x60 PUSH2 0xC05 DUP9 DUP3 DUP10 ADD PUSH2 0xB93 JUMP JUMPDEST SWAP3 POP POP PUSH1 0x80 PUSH2 0xC16 DUP9 DUP3 DUP10 ADD PUSH2 0xB48 JUMP JUMPDEST SWAP2 POP POP SWAP3 SWAP6 POP SWAP3 SWAP6 SWAP1 SWAP4 POP JUMP JUMPDEST PUSH1 0x0 PUSH2 0xC2E DUP3 PUSH2 0xB5D JUMP JUMPDEST SWAP2 POP PUSH2 0xC39 DUP4 PUSH2 0xB5D JUMP JUMPDEST SWAP3 POP DUP3 PUSH32 0x7FFFFFFFFFFFFFFFFFFFFFFFFFFFFFFFFFFFFFFFFFFFFFFFFFFFFFFFFFFFFFFF DIV DUP3 GT PUSH1 0x0 DUP5 SGT PUSH1 0x0 DUP5 SGT AND AND ISZERO PUSH2 0xC78 JUMPI PUSH2 0xC77 PUSH2 0x89C JUMP JUMPDEST JUMPDEST DUP2 PUSH32 0x8000000000000000000000000000000000000000000000000000000000000000 SDIV DUP4 SLT PUSH1 0x0 DUP5 SLT PUSH1 0x0 DUP5 SGT AND AND ISZERO PUSH2 0xCB5 JUMPI PUSH2 0xCB4 PUSH2 0x89C JUMP JUMPDEST JUMPDEST DUP3 PUSH32 0x8000000000000000000000000000000000000000000000000000000000000000 SDIV DUP3 SLT PUSH1 0x0 DUP5 SGT PUSH1 0x0 DUP5 SLT AND AND ISZERO PUSH2 0xCF2 JUMPI PUSH2 0xCF1 PUSH2 0x89C JUMP JUMPDEST JUMPDEST DUP3 PUSH32 0x7FFFFFFFFFFFFFFFFFFFFFFFFFFFFFFFFFFFFFFFFFFFFFFFFFFFFFFFFFFFFFFF SDIV DUP3 SLT PUSH1 0x0 DUP5 SLT PUSH1 0x0 DUP5 SLT AND AND ISZERO PUSH2 0xD2F JUMPI PUSH2 0xD2E PUSH2 0x89C JUMP JUMPDEST JUMPDEST DUP3 DUP3 MUL SWAP1 POP SWAP3 SWAP2 POP POP JUMP INVALID LOG2 PUSH5 0x6970667358 0x22 SLT KECCAK256 0x1E 0x4B PUSH22 0x4F164D6CE3537C8999D9652C31DE734333803B224F73 0xC2 DIV CALLDATALOAD SWAP4 0x2C EXTCODEHASH DUP15 PUSH5 0x736F6C6343 STOP ADDMOD ADDMOD STOP CALLER "
				},
				"gasEstimates": {
					"creation": {
						"codeDepositCost": "688000",
						"executionCost": "47093",
						"totalCost": "735093"
					},
					"external": {
						"addressToAmountFunded(address)": "2836",
						"fund()": "infinite",
						"funders(uint256)": "5044",
						"minimumUSD()": "2407",
						"owner()": "2558",
						"withdraw()": "infinite"
					}
				},
				"methodIdentifiers": {
					"addressToAmountFunded(address)": "3e47d6f3",
					"fund()": "b60d4288",
					"funders(uint256)": "dc0d3dff",
					"minimumUSD()": "3430a88c",
					"owner()": "8da5cb5b",
					"withdraw()": "3ccfd60b"
				}
			},
			"storageLayout": {
				"storage": [
					{
						"astId": 56,
						"contract": "contracts/FundME.sol:FundMe",
						"label": "minimumUSD",
						"offset": 0,
						"slot": "0",
						"type": "t_uint256"
					},
					{
						"astId": 59,
						"contract": "contracts/FundME.sol:FundMe",
						"label": "funders",
						"offset": 0,
						"slot": "1",
						"type": "t_array(t_address)dyn_storage"
					},
					{
						"astId": 63,
						"contract": "contracts/FundME.sol:FundMe",
						"label": "addressToAmountFunded",
						"offset": 0,
						"slot": "2",
						"type": "t_mapping(t_address,t_uint256)"
					},
					{
						"astId": 65,
						"contract": "contracts/FundME.sol:FundMe",
						"label": "owner",
						"offset": 0,
						"slot": "3",
						"type": "t_address"
					}
				],
				"types": {
					"t_address": {
						"encoding": "inplace",
						"label": "address",
						"numberOfBytes": "20"
					},
					"t_array(t_address)dyn_storage": {
						"base": "t_address",
						"encoding": "dynamic_array",
						"label": "address[]",
						"numberOfBytes": "32"
					},
					"t_mapping(t_address,t_uint256)": {
						"encoding": "mapping",
						"key": "t_address",
						"label": "mapping(address => uint256)",
						"numberOfBytes": "32",
						"value": "t_uint256"
					},
					"t_uint256": {
						"encoding": "inplace",
						"label": "uint256",
						"numberOfBytes": "32"
					}
				}
			},
			"userdoc": {
				"kind": "user",
				"methods": {},
				"version": 1
			}
		}
	}
}