{
	"contracts/FundME.sol": {
		"FundMe": {
			"abi": [
				{
					"inputs": [],
					"name": "fund",
					"outputs": [],
					"stateMutability": "payable",
					"type": "function"
				},
				{
					"inputs": [
						{
							"internalType": "uint256",
							"name": "ethAmount",
							"type": "uint256"
						}
					],
					"name": "getConversionRate",
					"outputs": [
						{
							"internalType": "uint256",
							"name": "",
							"type": "uint256"
						}
					],
					"stateMutability": "view",
					"type": "function"
				},
				{
					"inputs": [],
					"name": "getPrice",
					"outputs": [
						{
							"internalType": "uint256",
							"name": "",
							"type": "uint256"
						}
					],
					"stateMutability": "view",
					"type": "function"
				},
				{
					"inputs": [],
					"name": "getVersion",
					"outputs": [
						{
							"internalType": "uint256",
							"name": "",
							"type": "uint256"
						}
					],
					"stateMutability": "view",
					"type": "function"
				},
				{
					"inputs": [],
					"name": "minimumUSD",
					"outputs": [
						{
							"internalType": "uint256",
							"name": "",
							"type": "uint256"
						}
					],
					"stateMutability": "view",
					"type": "function"
				},
				{
					"inputs": [],
					"name": "withdraw",
					"outputs": [],
					"stateMutability": "nonpayable",
					"type": "function"
				}
			],
			"devdoc": {
				"kind": "dev",
				"methods": {},
				"version": 1
			},
			"evm": {
				"assembly": "    /* \"contracts/FundME.sol\":298:3478  contract FundMe {... */\n  mstore(0x40, 0x80)\n    /* \"contracts/FundME.sol\":351:353  50 */\n  0x32\n    /* \"contracts/FundME.sol\":323:353  uint256 public minimumUSD = 50 */\n  0x00\n  sstore\n    /* \"contracts/FundME.sol\":298:3478  contract FundMe {... */\n  callvalue\n  dup1\n  iszero\n  tag_1\n  jumpi\n  0x00\n  dup1\n  revert\ntag_1:\n  pop\n  dataSize(sub_0)\n  dup1\n  dataOffset(sub_0)\n  0x00\n  codecopy\n  0x00\n  return\nstop\n\nsub_0: assembly {\n        /* \"contracts/FundME.sol\":298:3478  contract FundMe {... */\n      mstore(0x40, 0x80)\n      jumpi(tag_1, lt(calldatasize, 0x04))\n      shr(0xe0, calldataload(0x00))\n      dup1\n      0x0d8e6e2c\n      eq\n      tag_2\n      jumpi\n      dup1\n      0x3430a88c\n      eq\n      tag_3\n      jumpi\n      dup1\n      0x3ccfd60b\n      eq\n      tag_4\n      jumpi\n      dup1\n      0x6e5b6b28\n      eq\n      tag_5\n      jumpi\n      dup1\n      0x98d5fdca\n      eq\n      tag_6\n      jumpi\n      dup1\n      0xb60d4288\n      eq\n      tag_7\n      jumpi\n    tag_1:\n      0x00\n      dup1\n      revert\n        /* \"contracts/FundME.sol\":2766:2971  function getVersion() public view returns(uint256){... */\n    tag_2:\n      callvalue\n      dup1\n      iszero\n      tag_8\n      jumpi\n      0x00\n      dup1\n      revert\n    tag_8:\n      pop\n      tag_9\n      tag_10\n      jump\t// in\n    tag_9:\n      mload(0x40)\n      tag_11\n      swap2\n      swap1\n      tag_12\n      jump\t// in\n    tag_11:\n      mload(0x40)\n      dup1\n      swap2\n      sub\n      swap1\n      return\n        /* \"contracts/FundME.sol\":323:353  uint256 public minimumUSD = 50 */\n    tag_3:\n      callvalue\n      dup1\n      iszero\n      tag_13\n      jumpi\n      0x00\n      dup1\n      revert\n    tag_13:\n      pop\n      tag_14\n      tag_15\n      jump\t// in\n    tag_14:\n      mload(0x40)\n      tag_16\n      swap2\n      swap1\n      tag_12\n      jump\t// in\n    tag_16:\n      mload(0x40)\n      dup1\n      swap2\n      sub\n      swap1\n      return\n        /* \"contracts/FundME.sol\":3444:3473  function withdraw() public {} */\n    tag_4:\n      callvalue\n      dup1\n      iszero\n      tag_17\n      jumpi\n      0x00\n      dup1\n      revert\n    tag_17:\n      pop\n      tag_18\n      tag_19\n      jump\t// in\n    tag_18:\n      stop\n        /* \"contracts/FundME.sol\":2979:3368  function getConversionRate(uint256 ethAmount) public view returns(uint256) {... */\n    tag_5:\n      callvalue\n      dup1\n      iszero\n      tag_20\n      jumpi\n      0x00\n      dup1\n      revert\n    tag_20:\n      pop\n      tag_21\n      0x04\n      dup1\n      calldatasize\n      sub\n      dup2\n      add\n      swap1\n      tag_22\n      swap2\n      swap1\n      tag_23\n      jump\t// in\n    tag_22:\n      tag_24\n      jump\t// in\n    tag_21:\n      mload(0x40)\n      tag_25\n      swap2\n      swap1\n      tag_12\n      jump\t// in\n    tag_25:\n      mload(0x40)\n      dup1\n      swap2\n      sub\n      swap1\n      return\n        /* \"contracts/FundME.sol\":1559:2758  function getPrice() public view returns(uint256){... */\n    tag_6:\n      callvalue\n      dup1\n      iszero\n      tag_26\n      jumpi\n      0x00\n      dup1\n      revert\n    tag_26:\n      pop\n      tag_27\n      tag_28\n      jump\t// in\n    tag_27:\n      mload(0x40)\n      tag_29\n      swap2\n      swap1\n      tag_12\n      jump\t// in\n    tag_29:\n      mload(0x40)\n      dup1\n      swap2\n      sub\n      swap1\n      return\n        /* \"contracts/FundME.sol\":402:1396  function fund() public payable {... */\n    tag_7:\n      tag_30\n      tag_31\n      jump\t// in\n    tag_30:\n      stop\n        /* \"contracts/FundME.sol\":2766:2971  function getVersion() public view returns(uint256){... */\n    tag_10:\n        /* \"contracts/FundME.sol\":2808:2815  uint256 */\n      0x00\n        /* \"contracts/FundME.sol\":2827:2858  AggregatorV3Interface priceFeed */\n      dup1\n        /* \"contracts/FundME.sol\":2883:2925  0x8A753747A1Fa494EC906cE90E9f37563A8AF630e */\n      0x8a753747a1fa494ec906ce90e9f37563a8af630e\n        /* \"contracts/FundME.sol\":2827:2926  AggregatorV3Interface priceFeed = AggregatorV3Interface(0x8A753747A1Fa494EC906cE90E9f37563A8AF630e) */\n      swap1\n      pop\n        /* \"contracts/FundME.sol\":2944:2953  priceFeed */\n      dup1\n        /* \"contracts/FundME.sol\":2944:2961  priceFeed.version */\n      0xffffffffffffffffffffffffffffffffffffffff\n      and\n      0x54fd4d50\n        /* \"contracts/FundME.sol\":2944:2963  priceFeed.version() */\n      mload(0x40)\n      dup2\n      0xffffffff\n      and\n      0xe0\n      shl\n      dup2\n      mstore\n      0x04\n      add\n      0x20\n      mload(0x40)\n      dup1\n      dup4\n      sub\n      dup2\n      dup7\n      dup1\n      extcodesize\n      iszero\n      dup1\n      iszero\n      tag_33\n      jumpi\n      0x00\n      dup1\n      revert\n    tag_33:\n      pop\n      gas\n      staticcall\n      iszero\n      dup1\n      iszero\n      tag_35\n      jumpi\n      returndatasize\n      0x00\n      dup1\n      returndatacopy\n      revert(0x00, returndatasize)\n    tag_35:\n      pop\n      pop\n      pop\n      pop\n      mload(0x40)\n      returndatasize\n      not(0x1f)\n      0x1f\n      dup3\n      add\n      and\n      dup3\n      add\n      dup1\n      0x40\n      mstore\n      pop\n      dup2\n      add\n      swap1\n      tag_36\n      swap2\n      swap1\n      tag_37\n      jump\t// in\n    tag_36:\n        /* \"contracts/FundME.sol\":2937:2963  return priceFeed.version() */\n      swap2\n      pop\n      pop\n        /* \"contracts/FundME.sol\":2766:2971  function getVersion() public view returns(uint256){... */\n      swap1\n      jump\t// out\n        /* \"contracts/FundME.sol\":323:353  uint256 public minimumUSD = 50 */\n    tag_15:\n      sload(0x00)\n      dup2\n      jump\t// out\n        /* \"contracts/FundME.sol\":3444:3473  function withdraw() public {} */\n    tag_19:\n      jump\t// out\n        /* \"contracts/FundME.sol\":2979:3368  function getConversionRate(uint256 ethAmount) public view returns(uint256) {... */\n    tag_24:\n        /* \"contracts/FundME.sol\":3045:3052  uint256 */\n      0x00\n        /* \"contracts/FundME.sol\":3065:3081  uint256 ethPrice */\n      dup1\n        /* \"contracts/FundME.sol\":3084:3094  getPrice() */\n      tag_40\n        /* \"contracts/FundME.sol\":3084:3092  getPrice */\n      tag_28\n        /* \"contracts/FundME.sol\":3084:3094  getPrice() */\n      jump\t// in\n    tag_40:\n        /* \"contracts/FundME.sol\":3065:3094  uint256 ethPrice = getPrice() */\n      swap1\n      pop\n        /* \"contracts/FundME.sol\":3213:3235  uint256 ethAmountInUsd */\n      0x00\n        /* \"contracts/FundME.sol\":3263:3267  1e18 */\n      0x0de0b6b3a7640000\n        /* \"contracts/FundME.sol\":3250:3259  ethAmount */\n      dup5\n        /* \"contracts/FundME.sol\":3239:3247  ethPrice */\n      dup4\n        /* \"contracts/FundME.sol\":3239:3259  ethPrice * ethAmount */\n      tag_41\n      swap2\n      swap1\n      tag_42\n      jump\t// in\n    tag_41:\n        /* \"contracts/FundME.sol\":3238:3267  (ethPrice * ethAmount) / 1e18 */\n      tag_43\n      swap2\n      swap1\n      tag_44\n      jump\t// in\n    tag_43:\n        /* \"contracts/FundME.sol\":3213:3267  uint256 ethAmountInUsd = (ethPrice * ethAmount) / 1e18 */\n      swap1\n      pop\n        /* \"contracts/FundME.sol\":3346:3360  ethAmountInUsd */\n      dup1\n        /* \"contracts/FundME.sol\":3339:3360  return ethAmountInUsd */\n      swap3\n      pop\n      pop\n      pop\n        /* \"contracts/FundME.sol\":2979:3368  function getConversionRate(uint256 ethAmount) public view returns(uint256) {... */\n      swap2\n      swap1\n      pop\n      jump\t// out\n        /* \"contracts/FundME.sol\":1559:2758  function getPrice() public view returns(uint256){... */\n    tag_28:\n        /* \"contracts/FundME.sol\":1599:1606  uint256 */\n      0x00\n        /* \"contracts/FundME.sol\":2242:2273  AggregatorV3Interface priceFeed */\n      dup1\n        /* \"contracts/FundME.sol\":2298:2340  0x8A753747A1Fa494EC906cE90E9f37563A8AF630e */\n      0x8a753747a1fa494ec906ce90e9f37563a8af630e\n        /* \"contracts/FundME.sol\":2242:2341  AggregatorV3Interface priceFeed = AggregatorV3Interface(0x8A753747A1Fa494EC906cE90E9f37563A8AF630e) */\n      swap1\n      pop\n        /* \"contracts/FundME.sol\":2354:2363  int price */\n      0x00\n        /* \"contracts/FundME.sol\":2370:2379  priceFeed */\n      dup2\n        /* \"contracts/FundME.sol\":2370:2395  priceFeed.latestRoundData */\n      0xffffffffffffffffffffffffffffffffffffffff\n      and\n      0xfeaf968c\n        /* \"contracts/FundME.sol\":2370:2397  priceFeed.latestRoundData() */\n      mload(0x40)\n      dup2\n      0xffffffff\n      and\n      0xe0\n      shl\n      dup2\n      mstore\n      0x04\n      add\n      0xa0\n      mload(0x40)\n      dup1\n      dup4\n      sub\n      dup2\n      dup7\n      dup1\n      extcodesize\n      iszero\n      dup1\n      iszero\n      tag_46\n      jumpi\n      0x00\n      dup1\n      revert\n    tag_46:\n      pop\n      gas\n      staticcall\n      iszero\n      dup1\n      iszero\n      tag_48\n      jumpi\n      returndatasize\n      0x00\n      dup1\n      returndatacopy\n      revert(0x00, returndatasize)\n    tag_48:\n      pop\n      pop\n      pop\n      pop\n      mload(0x40)\n      returndatasize\n      not(0x1f)\n      0x1f\n      dup3\n      add\n      and\n      dup3\n      add\n      dup1\n      0x40\n      mstore\n      pop\n      dup2\n      add\n      swap1\n      tag_49\n      swap2\n      swap1\n      tag_50\n      jump\t// in\n    tag_49:\n        /* \"contracts/FundME.sol\":2352:2397  (,int price,,,) = priceFeed.latestRoundData() */\n      pop\n      pop\n      pop\n      swap2\n      pop\n      pop\n        /* \"contracts/FundME.sol\":2702:2706  1e10 */\n      0x02540be400\n        /* \"contracts/FundME.sol\":2694:2699  price */\n      dup2\n        /* \"contracts/FundME.sol\":2694:2706  price * 1e10 */\n      tag_51\n      swap2\n      swap1\n      tag_52\n      jump\t// in\n    tag_51:\n        /* \"contracts/FundME.sol\":2679:2707  return uint256(price * 1e10) */\n      swap3\n      pop\n      pop\n      pop\n        /* \"contracts/FundME.sol\":1559:2758  function getPrice() public view returns(uint256){... */\n      swap1\n      jump\t// out\n        /* \"contracts/FundME.sol\":402:1396  function fund() public payable {... */\n    tag_31:\n        /* \"contracts/FundME.sol\":1092:1102  minimumUSD */\n      sload(0x00)\n        /* \"contracts/FundME.sol\":1079:1088  msg.value */\n      callvalue\n        /* \"contracts/FundME.sol\":1079:1102  msg.value >= minimumUSD */\n      lt\n      iszero\n        /* \"contracts/FundME.sol\":1071:1125  require(msg.value >= minimumUSD, \"Didn't send enough\") */\n      tag_54\n      jumpi\n      mload(0x40)\n      0x08c379a000000000000000000000000000000000000000000000000000000000\n      dup2\n      mstore\n      0x04\n      add\n      tag_55\n      swap1\n      tag_56\n      jump\t// in\n    tag_55:\n      mload(0x40)\n      dup1\n      swap2\n      sub\n      swap1\n      revert\n    tag_54:\n        /* \"contracts/FundME.sol\":402:1396  function fund() public payable {... */\n      jump\t// out\n        /* \"#utility.yul\":7:84   */\n    tag_57:\n        /* \"#utility.yul\":44:51   */\n      0x00\n        /* \"#utility.yul\":73:78   */\n      dup2\n        /* \"#utility.yul\":62:78   */\n      swap1\n      pop\n        /* \"#utility.yul\":7:84   */\n      swap2\n      swap1\n      pop\n      jump\t// out\n        /* \"#utility.yul\":90:208   */\n    tag_58:\n        /* \"#utility.yul\":177:201   */\n      tag_79\n        /* \"#utility.yul\":195:200   */\n      dup2\n        /* \"#utility.yul\":177:201   */\n      tag_57\n      jump\t// in\n    tag_79:\n        /* \"#utility.yul\":172:175   */\n      dup3\n        /* \"#utility.yul\":165:202   */\n      mstore\n        /* \"#utility.yul\":90:208   */\n      pop\n      pop\n      jump\t// out\n        /* \"#utility.yul\":214:436   */\n    tag_12:\n        /* \"#utility.yul\":307:311   */\n      0x00\n        /* \"#utility.yul\":345:347   */\n      0x20\n        /* \"#utility.yul\":334:343   */\n      dup3\n        /* \"#utility.yul\":330:348   */\n      add\n        /* \"#utility.yul\":322:348   */\n      swap1\n      pop\n        /* \"#utility.yul\":358:429   */\n      tag_81\n        /* \"#utility.yul\":426:427   */\n      0x00\n        /* \"#utility.yul\":415:424   */\n      dup4\n        /* \"#utility.yul\":411:428   */\n      add\n        /* \"#utility.yul\":402:408   */\n      dup5\n        /* \"#utility.yul\":358:429   */\n      tag_58\n      jump\t// in\n    tag_81:\n        /* \"#utility.yul\":214:436   */\n      swap3\n      swap2\n      pop\n      pop\n      jump\t// out\n        /* \"#utility.yul\":523:640   */\n    tag_60:\n        /* \"#utility.yul\":632:633   */\n      0x00\n        /* \"#utility.yul\":629:630   */\n      dup1\n        /* \"#utility.yul\":622:634   */\n      revert\n        /* \"#utility.yul\":769:891   */\n    tag_62:\n        /* \"#utility.yul\":842:866   */\n      tag_86\n        /* \"#utility.yul\":860:865   */\n      dup2\n        /* \"#utility.yul\":842:866   */\n      tag_57\n      jump\t// in\n    tag_86:\n        /* \"#utility.yul\":835:840   */\n      dup2\n        /* \"#utility.yul\":832:867   */\n      eq\n        /* \"#utility.yul\":822:885   */\n      tag_87\n      jumpi\n        /* \"#utility.yul\":881:882   */\n      0x00\n        /* \"#utility.yul\":878:879   */\n      dup1\n        /* \"#utility.yul\":871:883   */\n      revert\n        /* \"#utility.yul\":822:885   */\n    tag_87:\n        /* \"#utility.yul\":769:891   */\n      pop\n      jump\t// out\n        /* \"#utility.yul\":897:1036   */\n    tag_63:\n        /* \"#utility.yul\":943:948   */\n      0x00\n        /* \"#utility.yul\":981:987   */\n      dup2\n        /* \"#utility.yul\":968:988   */\n      calldataload\n        /* \"#utility.yul\":959:988   */\n      swap1\n      pop\n        /* \"#utility.yul\":997:1030   */\n      tag_89\n        /* \"#utility.yul\":1024:1029   */\n      dup2\n        /* \"#utility.yul\":997:1030   */\n      tag_62\n      jump\t// in\n    tag_89:\n        /* \"#utility.yul\":897:1036   */\n      swap3\n      swap2\n      pop\n      pop\n      jump\t// out\n        /* \"#utility.yul\":1042:1371   */\n    tag_23:\n        /* \"#utility.yul\":1101:1107   */\n      0x00\n        /* \"#utility.yul\":1150:1152   */\n      0x20\n        /* \"#utility.yul\":1138:1147   */\n      dup3\n        /* \"#utility.yul\":1129:1136   */\n      dup5\n        /* \"#utility.yul\":1125:1148   */\n      sub\n        /* \"#utility.yul\":1121:1153   */\n      slt\n        /* \"#utility.yul\":1118:1237   */\n      iszero\n      tag_91\n      jumpi\n        /* \"#utility.yul\":1156:1235   */\n      tag_92\n      tag_60\n      jump\t// in\n    tag_92:\n        /* \"#utility.yul\":1118:1237   */\n    tag_91:\n        /* \"#utility.yul\":1276:1277   */\n      0x00\n        /* \"#utility.yul\":1301:1354   */\n      tag_93\n        /* \"#utility.yul\":1346:1353   */\n      dup5\n        /* \"#utility.yul\":1337:1343   */\n      dup3\n        /* \"#utility.yul\":1326:1335   */\n      dup6\n        /* \"#utility.yul\":1322:1344   */\n      add\n        /* \"#utility.yul\":1301:1354   */\n      tag_63\n      jump\t// in\n    tag_93:\n        /* \"#utility.yul\":1291:1354   */\n      swap2\n      pop\n        /* \"#utility.yul\":1247:1364   */\n      pop\n        /* \"#utility.yul\":1042:1371   */\n      swap3\n      swap2\n      pop\n      pop\n      jump\t// out\n        /* \"#utility.yul\":1377:1520   */\n    tag_64:\n        /* \"#utility.yul\":1434:1439   */\n      0x00\n        /* \"#utility.yul\":1465:1471   */\n      dup2\n        /* \"#utility.yul\":1459:1472   */\n      mload\n        /* \"#utility.yul\":1450:1472   */\n      swap1\n      pop\n        /* \"#utility.yul\":1481:1514   */\n      tag_95\n        /* \"#utility.yul\":1508:1513   */\n      dup2\n        /* \"#utility.yul\":1481:1514   */\n      tag_62\n      jump\t// in\n    tag_95:\n        /* \"#utility.yul\":1377:1520   */\n      swap3\n      swap2\n      pop\n      pop\n      jump\t// out\n        /* \"#utility.yul\":1526:1877   */\n    tag_37:\n        /* \"#utility.yul\":1596:1602   */\n      0x00\n        /* \"#utility.yul\":1645:1647   */\n      0x20\n        /* \"#utility.yul\":1633:1642   */\n      dup3\n        /* \"#utility.yul\":1624:1631   */\n      dup5\n        /* \"#utility.yul\":1620:1643   */\n      sub\n        /* \"#utility.yul\":1616:1648   */\n      slt\n        /* \"#utility.yul\":1613:1732   */\n      iszero\n      tag_97\n      jumpi\n        /* \"#utility.yul\":1651:1730   */\n      tag_98\n      tag_60\n      jump\t// in\n    tag_98:\n        /* \"#utility.yul\":1613:1732   */\n    tag_97:\n        /* \"#utility.yul\":1771:1772   */\n      0x00\n        /* \"#utility.yul\":1796:1860   */\n      tag_99\n        /* \"#utility.yul\":1852:1859   */\n      dup5\n        /* \"#utility.yul\":1843:1849   */\n      dup3\n        /* \"#utility.yul\":1832:1841   */\n      dup6\n        /* \"#utility.yul\":1828:1850   */\n      add\n        /* \"#utility.yul\":1796:1860   */\n      tag_64\n      jump\t// in\n    tag_99:\n        /* \"#utility.yul\":1786:1860   */\n      swap2\n      pop\n        /* \"#utility.yul\":1742:1870   */\n      pop\n        /* \"#utility.yul\":1526:1877   */\n      swap3\n      swap2\n      pop\n      pop\n      jump\t// out\n        /* \"#utility.yul\":1883:2063   */\n    tag_65:\n        /* \"#utility.yul\":1931:2008   */\n      0x4e487b7100000000000000000000000000000000000000000000000000000000\n        /* \"#utility.yul\":1928:1929   */\n      0x00\n        /* \"#utility.yul\":1921:2009   */\n      mstore\n        /* \"#utility.yul\":2028:2032   */\n      0x11\n        /* \"#utility.yul\":2025:2026   */\n      0x04\n        /* \"#utility.yul\":2018:2033   */\n      mstore\n        /* \"#utility.yul\":2052:2056   */\n      0x24\n        /* \"#utility.yul\":2049:2050   */\n      0x00\n        /* \"#utility.yul\":2042:2057   */\n      revert\n        /* \"#utility.yul\":2069:2417   */\n    tag_42:\n        /* \"#utility.yul\":2109:2116   */\n      0x00\n        /* \"#utility.yul\":2132:2152   */\n      tag_102\n        /* \"#utility.yul\":2150:2151   */\n      dup3\n        /* \"#utility.yul\":2132:2152   */\n      tag_57\n      jump\t// in\n    tag_102:\n        /* \"#utility.yul\":2127:2152   */\n      swap2\n      pop\n        /* \"#utility.yul\":2166:2186   */\n      tag_103\n        /* \"#utility.yul\":2184:2185   */\n      dup4\n        /* \"#utility.yul\":2166:2186   */\n      tag_57\n      jump\t// in\n    tag_103:\n        /* \"#utility.yul\":2161:2186   */\n      swap3\n      pop\n        /* \"#utility.yul\":2354:2355   */\n      dup2\n        /* \"#utility.yul\":2286:2352   */\n      0xffffffffffffffffffffffffffffffffffffffffffffffffffffffffffffffff\n        /* \"#utility.yul\":2282:2356   */\n      div\n        /* \"#utility.yul\":2279:2280   */\n      dup4\n        /* \"#utility.yul\":2276:2357   */\n      gt\n        /* \"#utility.yul\":2271:2272   */\n      dup3\n        /* \"#utility.yul\":2264:2273   */\n      iszero\n        /* \"#utility.yul\":2257:2274   */\n      iszero\n        /* \"#utility.yul\":2253:2358   */\n      and\n        /* \"#utility.yul\":2250:2381   */\n      iszero\n      tag_104\n      jumpi\n        /* \"#utility.yul\":2361:2379   */\n      tag_105\n      tag_65\n      jump\t// in\n    tag_105:\n        /* \"#utility.yul\":2250:2381   */\n    tag_104:\n        /* \"#utility.yul\":2409:2410   */\n      dup3\n        /* \"#utility.yul\":2406:2407   */\n      dup3\n        /* \"#utility.yul\":2402:2411   */\n      mul\n        /* \"#utility.yul\":2391:2411   */\n      swap1\n      pop\n        /* \"#utility.yul\":2069:2417   */\n      swap3\n      swap2\n      pop\n      pop\n      jump\t// out\n        /* \"#utility.yul\":2423:2603   */\n    tag_66:\n        /* \"#utility.yul\":2471:2548   */\n      0x4e487b7100000000000000000000000000000000000000000000000000000000\n        /* \"#utility.yul\":2468:2469   */\n      0x00\n        /* \"#utility.yul\":2461:2549   */\n      mstore\n        /* \"#utility.yul\":2568:2572   */\n      0x12\n        /* \"#utility.yul\":2565:2566   */\n      0x04\n        /* \"#utility.yul\":2558:2573   */\n      mstore\n        /* \"#utility.yul\":2592:2596   */\n      0x24\n        /* \"#utility.yul\":2589:2590   */\n      0x00\n        /* \"#utility.yul\":2582:2597   */\n      revert\n        /* \"#utility.yul\":2609:2794   */\n    tag_44:\n        /* \"#utility.yul\":2649:2650   */\n      0x00\n        /* \"#utility.yul\":2666:2686   */\n      tag_108\n        /* \"#utility.yul\":2684:2685   */\n      dup3\n        /* \"#utility.yul\":2666:2686   */\n      tag_57\n      jump\t// in\n    tag_108:\n        /* \"#utility.yul\":2661:2686   */\n      swap2\n      pop\n        /* \"#utility.yul\":2700:2720   */\n      tag_109\n        /* \"#utility.yul\":2718:2719   */\n      dup4\n        /* \"#utility.yul\":2700:2720   */\n      tag_57\n      jump\t// in\n    tag_109:\n        /* \"#utility.yul\":2695:2720   */\n      swap3\n      pop\n        /* \"#utility.yul\":2739:2740   */\n      dup3\n        /* \"#utility.yul\":2729:2764   */\n      tag_110\n      jumpi\n        /* \"#utility.yul\":2744:2762   */\n      tag_111\n      tag_66\n      jump\t// in\n    tag_111:\n        /* \"#utility.yul\":2729:2764   */\n    tag_110:\n        /* \"#utility.yul\":2786:2787   */\n      dup3\n        /* \"#utility.yul\":2783:2784   */\n      dup3\n        /* \"#utility.yul\":2779:2788   */\n      div\n        /* \"#utility.yul\":2774:2788   */\n      swap1\n      pop\n        /* \"#utility.yul\":2609:2794   */\n      swap3\n      swap2\n      pop\n      pop\n      jump\t// out\n        /* \"#utility.yul\":2800:2905   */\n    tag_67:\n        /* \"#utility.yul\":2836:2843   */\n      0x00\n        /* \"#utility.yul\":2876:2898   */\n      0xffffffffffffffffffff\n        /* \"#utility.yul\":2869:2874   */\n      dup3\n        /* \"#utility.yul\":2865:2899   */\n      and\n        /* \"#utility.yul\":2854:2899   */\n      swap1\n      pop\n        /* \"#utility.yul\":2800:2905   */\n      swap2\n      swap1\n      pop\n      jump\t// out\n        /* \"#utility.yul\":2911:3031   */\n    tag_68:\n        /* \"#utility.yul\":2983:3006   */\n      tag_114\n        /* \"#utility.yul\":3000:3005   */\n      dup2\n        /* \"#utility.yul\":2983:3006   */\n      tag_67\n      jump\t// in\n    tag_114:\n        /* \"#utility.yul\":2976:2981   */\n      dup2\n        /* \"#utility.yul\":2973:3007   */\n      eq\n        /* \"#utility.yul\":2963:3025   */\n      tag_115\n      jumpi\n        /* \"#utility.yul\":3021:3022   */\n      0x00\n        /* \"#utility.yul\":3018:3019   */\n      dup1\n        /* \"#utility.yul\":3011:3023   */\n      revert\n        /* \"#utility.yul\":2963:3025   */\n    tag_115:\n        /* \"#utility.yul\":2911:3031   */\n      pop\n      jump\t// out\n        /* \"#utility.yul\":3037:3178   */\n    tag_69:\n        /* \"#utility.yul\":3093:3098   */\n      0x00\n        /* \"#utility.yul\":3124:3130   */\n      dup2\n        /* \"#utility.yul\":3118:3131   */\n      mload\n        /* \"#utility.yul\":3109:3131   */\n      swap1\n      pop\n        /* \"#utility.yul\":3140:3172   */\n      tag_117\n        /* \"#utility.yul\":3166:3171   */\n      dup2\n        /* \"#utility.yul\":3140:3172   */\n      tag_68\n      jump\t// in\n    tag_117:\n        /* \"#utility.yul\":3037:3178   */\n      swap3\n      swap2\n      pop\n      pop\n      jump\t// out\n        /* \"#utility.yul\":3184:3260   */\n    tag_70:\n        /* \"#utility.yul\":3220:3227   */\n      0x00\n        /* \"#utility.yul\":3249:3254   */\n      dup2\n        /* \"#utility.yul\":3238:3254   */\n      swap1\n      pop\n        /* \"#utility.yul\":3184:3260   */\n      swap2\n      swap1\n      pop\n      jump\t// out\n        /* \"#utility.yul\":3266:3386   */\n    tag_71:\n        /* \"#utility.yul\":3338:3361   */\n      tag_120\n        /* \"#utility.yul\":3355:3360   */\n      dup2\n        /* \"#utility.yul\":3338:3361   */\n      tag_70\n      jump\t// in\n    tag_120:\n        /* \"#utility.yul\":3331:3336   */\n      dup2\n        /* \"#utility.yul\":3328:3362   */\n      eq\n        /* \"#utility.yul\":3318:3380   */\n      tag_121\n      jumpi\n        /* \"#utility.yul\":3376:3377   */\n      0x00\n        /* \"#utility.yul\":3373:3374   */\n      dup1\n        /* \"#utility.yul\":3366:3378   */\n      revert\n        /* \"#utility.yul\":3318:3380   */\n    tag_121:\n        /* \"#utility.yul\":3266:3386   */\n      pop\n      jump\t// out\n        /* \"#utility.yul\":3392:3533   */\n    tag_72:\n        /* \"#utility.yul\":3448:3453   */\n      0x00\n        /* \"#utility.yul\":3479:3485   */\n      dup2\n        /* \"#utility.yul\":3473:3486   */\n      mload\n        /* \"#utility.yul\":3464:3486   */\n      swap1\n      pop\n        /* \"#utility.yul\":3495:3527   */\n      tag_123\n        /* \"#utility.yul\":3521:3526   */\n      dup2\n        /* \"#utility.yul\":3495:3527   */\n      tag_71\n      jump\t// in\n    tag_123:\n        /* \"#utility.yul\":3392:3533   */\n      swap3\n      swap2\n      pop\n      pop\n      jump\t// out\n        /* \"#utility.yul\":3539:4510   */\n    tag_50:\n        /* \"#utility.yul\":3642:3648   */\n      0x00\n        /* \"#utility.yul\":3650:3656   */\n      dup1\n        /* \"#utility.yul\":3658:3664   */\n      0x00\n        /* \"#utility.yul\":3666:3672   */\n      dup1\n        /* \"#utility.yul\":3674:3680   */\n      0x00\n        /* \"#utility.yul\":3723:3726   */\n      0xa0\n        /* \"#utility.yul\":3711:3720   */\n      dup7\n        /* \"#utility.yul\":3702:3709   */\n      dup9\n        /* \"#utility.yul\":3698:3721   */\n      sub\n        /* \"#utility.yul\":3694:3727   */\n      slt\n        /* \"#utility.yul\":3691:3811   */\n      iszero\n      tag_125\n      jumpi\n        /* \"#utility.yul\":3730:3809   */\n      tag_126\n      tag_60\n      jump\t// in\n    tag_126:\n        /* \"#utility.yul\":3691:3811   */\n    tag_125:\n        /* \"#utility.yul\":3850:3851   */\n      0x00\n        /* \"#utility.yul\":3875:3938   */\n      tag_127\n        /* \"#utility.yul\":3930:3937   */\n      dup9\n        /* \"#utility.yul\":3921:3927   */\n      dup3\n        /* \"#utility.yul\":3910:3919   */\n      dup10\n        /* \"#utility.yul\":3906:3928   */\n      add\n        /* \"#utility.yul\":3875:3938   */\n      tag_69\n      jump\t// in\n    tag_127:\n        /* \"#utility.yul\":3865:3938   */\n      swap6\n      pop\n        /* \"#utility.yul\":3821:3948   */\n      pop\n        /* \"#utility.yul\":3987:3989   */\n      0x20\n        /* \"#utility.yul\":4013:4076   */\n      tag_128\n        /* \"#utility.yul\":4068:4075   */\n      dup9\n        /* \"#utility.yul\":4059:4065   */\n      dup3\n        /* \"#utility.yul\":4048:4057   */\n      dup10\n        /* \"#utility.yul\":4044:4066   */\n      add\n        /* \"#utility.yul\":4013:4076   */\n      tag_72\n      jump\t// in\n    tag_128:\n        /* \"#utility.yul\":4003:4076   */\n      swap5\n      pop\n        /* \"#utility.yul\":3958:4086   */\n      pop\n        /* \"#utility.yul\":4125:4127   */\n      0x40\n        /* \"#utility.yul\":4151:4215   */\n      tag_129\n        /* \"#utility.yul\":4207:4214   */\n      dup9\n        /* \"#utility.yul\":4198:4204   */\n      dup3\n        /* \"#utility.yul\":4187:4196   */\n      dup10\n        /* \"#utility.yul\":4183:4205   */\n      add\n        /* \"#utility.yul\":4151:4215   */\n      tag_64\n      jump\t// in\n    tag_129:\n        /* \"#utility.yul\":4141:4215   */\n      swap4\n      pop\n        /* \"#utility.yul\":4096:4225   */\n      pop\n        /* \"#utility.yul\":4264:4266   */\n      0x60\n        /* \"#utility.yul\":4290:4354   */\n      tag_130\n        /* \"#utility.yul\":4346:4353   */\n      dup9\n        /* \"#utility.yul\":4337:4343   */\n      dup3\n        /* \"#utility.yul\":4326:4335   */\n      dup10\n        /* \"#utility.yul\":4322:4344   */\n      add\n        /* \"#utility.yul\":4290:4354   */\n      tag_64\n      jump\t// in\n    tag_130:\n        /* \"#utility.yul\":4280:4354   */\n      swap3\n      pop\n        /* \"#utility.yul\":4235:4364   */\n      pop\n        /* \"#utility.yul\":4403:4406   */\n      0x80\n        /* \"#utility.yul\":4430:4493   */\n      tag_131\n        /* \"#utility.yul\":4485:4492   */\n      dup9\n        /* \"#utility.yul\":4476:4482   */\n      dup3\n        /* \"#utility.yul\":4465:4474   */\n      dup10\n        /* \"#utility.yul\":4461:4483   */\n      add\n        /* \"#utility.yul\":4430:4493   */\n      tag_69\n      jump\t// in\n    tag_131:\n        /* \"#utility.yul\":4420:4493   */\n      swap2\n      pop\n        /* \"#utility.yul\":4374:4503   */\n      pop\n        /* \"#utility.yul\":3539:4510   */\n      swap3\n      swap6\n      pop\n      swap3\n      swap6\n      swap1\n      swap4\n      pop\n      jump\t// out\n        /* \"#utility.yul\":4516:5507   */\n    tag_52:\n        /* \"#utility.yul\":4555:4562   */\n      0x00\n        /* \"#utility.yul\":4578:4597   */\n      tag_133\n        /* \"#utility.yul\":4595:4596   */\n      dup3\n        /* \"#utility.yul\":4578:4597   */\n      tag_70\n      jump\t// in\n    tag_133:\n        /* \"#utility.yul\":4573:4597   */\n      swap2\n      pop\n        /* \"#utility.yul\":4611:4630   */\n      tag_134\n        /* \"#utility.yul\":4628:4629   */\n      dup4\n        /* \"#utility.yul\":4611:4630   */\n      tag_70\n      jump\t// in\n    tag_134:\n        /* \"#utility.yul\":4606:4630   */\n      swap3\n      pop\n        /* \"#utility.yul\":4812:4813   */\n      dup3\n        /* \"#utility.yul\":4744:4810   */\n      0x7fffffffffffffffffffffffffffffffffffffffffffffffffffffffffffffff\n        /* \"#utility.yul\":4740:4814   */\n      div\n        /* \"#utility.yul\":4737:4738   */\n      dup3\n        /* \"#utility.yul\":4734:4815   */\n      gt\n        /* \"#utility.yul\":4729:4730   */\n      0x00\n        /* \"#utility.yul\":4726:4727   */\n      dup5\n        /* \"#utility.yul\":4722:4731   */\n      sgt\n        /* \"#utility.yul\":4718:4719   */\n      0x00\n        /* \"#utility.yul\":4715:4716   */\n      dup5\n        /* \"#utility.yul\":4711:4720   */\n      sgt\n        /* \"#utility.yul\":4707:4732   */\n      and\n        /* \"#utility.yul\":4703:4816   */\n      and\n        /* \"#utility.yul\":4700:4839   */\n      iszero\n      tag_135\n      jumpi\n        /* \"#utility.yul\":4819:4837   */\n      tag_136\n      tag_65\n      jump\t// in\n    tag_136:\n        /* \"#utility.yul\":4700:4839   */\n    tag_135:\n        /* \"#utility.yul\":5023:5024   */\n      dup2\n        /* \"#utility.yul\":4955:5021   */\n      0x8000000000000000000000000000000000000000000000000000000000000000\n        /* \"#utility.yul\":4950:5025   */\n      sdiv\n        /* \"#utility.yul\":4947:4948   */\n      dup4\n        /* \"#utility.yul\":4943:5026   */\n      slt\n        /* \"#utility.yul\":4938:4939   */\n      0x00\n        /* \"#utility.yul\":4935:4936   */\n      dup5\n        /* \"#utility.yul\":4931:4940   */\n      slt\n        /* \"#utility.yul\":4927:4928   */\n      0x00\n        /* \"#utility.yul\":4924:4925   */\n      dup5\n        /* \"#utility.yul\":4920:4929   */\n      sgt\n        /* \"#utility.yul\":4916:4941   */\n      and\n        /* \"#utility.yul\":4912:5027   */\n      and\n        /* \"#utility.yul\":4909:5050   */\n      iszero\n      tag_137\n      jumpi\n        /* \"#utility.yul\":5030:5048   */\n      tag_138\n      tag_65\n      jump\t// in\n    tag_138:\n        /* \"#utility.yul\":4909:5050   */\n    tag_137:\n        /* \"#utility.yul\":5234:5235   */\n      dup3\n        /* \"#utility.yul\":5166:5232   */\n      0x8000000000000000000000000000000000000000000000000000000000000000\n        /* \"#utility.yul\":5161:5236   */\n      sdiv\n        /* \"#utility.yul\":5158:5159   */\n      dup3\n        /* \"#utility.yul\":5154:5237   */\n      slt\n        /* \"#utility.yul\":5149:5150   */\n      0x00\n        /* \"#utility.yul\":5146:5147   */\n      dup5\n        /* \"#utility.yul\":5142:5151   */\n      sgt\n        /* \"#utility.yul\":5138:5139   */\n      0x00\n        /* \"#utility.yul\":5135:5136   */\n      dup5\n        /* \"#utility.yul\":5131:5140   */\n      slt\n        /* \"#utility.yul\":5127:5152   */\n      and\n        /* \"#utility.yul\":5123:5238   */\n      and\n        /* \"#utility.yul\":5120:5261   */\n      iszero\n      tag_139\n      jumpi\n        /* \"#utility.yul\":5241:5259   */\n      tag_140\n      tag_65\n      jump\t// in\n    tag_140:\n        /* \"#utility.yul\":5120:5261   */\n    tag_139:\n        /* \"#utility.yul\":5444:5445   */\n      dup3\n        /* \"#utility.yul\":5376:5442   */\n      0x7fffffffffffffffffffffffffffffffffffffffffffffffffffffffffffffff\n        /* \"#utility.yul\":5371:5446   */\n      sdiv\n        /* \"#utility.yul\":5368:5369   */\n      dup3\n        /* \"#utility.yul\":5364:5447   */\n      slt\n        /* \"#utility.yul\":5359:5360   */\n      0x00\n        /* \"#utility.yul\":5356:5357   */\n      dup5\n        /* \"#utility.yul\":5352:5361   */\n      slt\n        /* \"#utility.yul\":5348:5349   */\n      0x00\n        /* \"#utility.yul\":5345:5346   */\n      dup5\n        /* \"#utility.yul\":5341:5350   */\n      slt\n        /* \"#utility.yul\":5337:5362   */\n      and\n        /* \"#utility.yul\":5333:5448   */\n      and\n        /* \"#utility.yul\":5330:5471   */\n      iszero\n      tag_141\n      jumpi\n        /* \"#utility.yul\":5451:5469   */\n      tag_142\n      tag_65\n      jump\t// in\n    tag_142:\n        /* \"#utility.yul\":5330:5471   */\n    tag_141:\n        /* \"#utility.yul\":5499:5500   */\n      dup3\n        /* \"#utility.yul\":5496:5497   */\n      dup3\n        /* \"#utility.yul\":5492:5501   */\n      mul\n        /* \"#utility.yul\":5481:5501   */\n      swap1\n      pop\n        /* \"#utility.yul\":4516:5507   */\n      swap3\n      swap2\n      pop\n      pop\n      jump\t// out\n        /* \"#utility.yul\":5513:5682   */\n    tag_73:\n        /* \"#utility.yul\":5597:5608   */\n      0x00\n        /* \"#utility.yul\":5631:5637   */\n      dup3\n        /* \"#utility.yul\":5626:5629   */\n      dup3\n        /* \"#utility.yul\":5619:5638   */\n      mstore\n        /* \"#utility.yul\":5671:5675   */\n      0x20\n        /* \"#utility.yul\":5666:5669   */\n      dup3\n        /* \"#utility.yul\":5662:5676   */\n      add\n        /* \"#utility.yul\":5647:5676   */\n      swap1\n      pop\n        /* \"#utility.yul\":5513:5682   */\n      swap3\n      swap2\n      pop\n      pop\n      jump\t// out\n        /* \"#utility.yul\":5688:5856   */\n    tag_74:\n        /* \"#utility.yul\":5828:5848   */\n      0x4469646e27742073656e6420656e6f7567680000000000000000000000000000\n        /* \"#utility.yul\":5824:5825   */\n      0x00\n        /* \"#utility.yul\":5816:5822   */\n      dup3\n        /* \"#utility.yul\":5812:5826   */\n      add\n        /* \"#utility.yul\":5805:5849   */\n      mstore\n        /* \"#utility.yul\":5688:5856   */\n      pop\n      jump\t// out\n        /* \"#utility.yul\":5862:6228   */\n    tag_75:\n        /* \"#utility.yul\":6004:6007   */\n      0x00\n        /* \"#utility.yul\":6025:6092   */\n      tag_146\n        /* \"#utility.yul\":6089:6091   */\n      0x12\n        /* \"#utility.yul\":6084:6087   */\n      dup4\n        /* \"#utility.yul\":6025:6092   */\n      tag_73\n      jump\t// in\n    tag_146:\n        /* \"#utility.yul\":6018:6092   */\n      swap2\n      pop\n        /* \"#utility.yul\":6101:6194   */\n      tag_147\n        /* \"#utility.yul\":6190:6193   */\n      dup3\n        /* \"#utility.yul\":6101:6194   */\n      tag_74\n      jump\t// in\n    tag_147:\n        /* \"#utility.yul\":6219:6221   */\n      0x20\n        /* \"#utility.yul\":6214:6217   */\n      dup3\n        /* \"#utility.yul\":6210:6222   */\n      add\n        /* \"#utility.yul\":6203:6222   */\n      swap1\n      pop\n        /* \"#utility.yul\":5862:6228   */\n      swap2\n      swap1\n      pop\n      jump\t// out\n        /* \"#utility.yul\":6234:6653   */\n    tag_56:\n        /* \"#utility.yul\":6400:6404   */\n      0x00\n        /* \"#utility.yul\":6438:6440   */\n      0x20\n        /* \"#utility.yul\":6427:6436   */\n      dup3\n        /* \"#utility.yul\":6423:6441   */\n      add\n        /* \"#utility.yul\":6415:6441   */\n      swap1\n      pop\n        /* \"#utility.yul\":6487:6496   */\n      dup2\n        /* \"#utility.yul\":6481:6485   */\n      dup2\n        /* \"#utility.yul\":6477:6497   */\n      sub\n        /* \"#utility.yul\":6473:6474   */\n      0x00\n        /* \"#utility.yul\":6462:6471   */\n      dup4\n        /* \"#utility.yul\":6458:6475   */\n      add\n        /* \"#utility.yul\":6451:6498   */\n      mstore\n        /* \"#utility.yul\":6515:6646   */\n      tag_149\n        /* \"#utility.yul\":6641:6645   */\n      dup2\n        /* \"#utility.yul\":6515:6646   */\n      tag_75\n      jump\t// in\n    tag_149:\n        /* \"#utility.yul\":6507:6646   */\n      swap1\n      pop\n        /* \"#utility.yul\":6234:6653   */\n      swap2\n      swap1\n      pop\n      jump\t// out\n\n    auxdata: 0xa26469706673582212202186a0f6ba88268d7f5c95a84c6fb02537be79d26bc39d9c81f01876a9db13cf64736f6c63430008080033\n}\n",
				"bytecode": {
					"linkReferences": {},
					"object": "6080604052603260005534801561001557600080fd5b50610792806100256000396000f3fe6080604052600436106100555760003560e01c80630d8e6e2c1461005a5780633430a88c146100855780633ccfd60b146100b05780636e5b6b28146100c757806398d5fdca14610104578063b60d42881461012f575b600080fd5b34801561006657600080fd5b5061006f610139565b60405161007c9190610331565b60405180910390f35b34801561009157600080fd5b5061009a6101d7565b6040516100a79190610331565b60405180910390f35b3480156100bc57600080fd5b506100c56101dd565b005b3480156100d357600080fd5b506100ee60048036038101906100e9919061037d565b6101df565b6040516100fb9190610331565b60405180910390f35b34801561011057600080fd5b50610119610219565b6040516101269190610331565b60405180910390f35b6101376102d1565b005b600080738a753747a1fa494ec906ce90e9f37563a8af630e90508073ffffffffffffffffffffffffffffffffffffffff166354fd4d506040518163ffffffff1660e01b815260040160206040518083038186803b15801561019957600080fd5b505afa1580156101ad573d6000803e3d6000fd5b505050506040513d601f19601f820116820180604052508101906101d191906103bf565b91505090565b60005481565b565b6000806101ea610219565b90506000670de0b6b3a76400008483610203919061041b565b61020d91906104a4565b90508092505050919050565b600080738a753747a1fa494ec906ce90e9f37563a8af630e905060008173ffffffffffffffffffffffffffffffffffffffff1663feaf968c6040518163ffffffff1660e01b815260040160a06040518083038186803b15801561027b57600080fd5b505afa15801561028f573d6000803e3d6000fd5b505050506040513d601f19601f820116820180604052508101906102b3919061054d565b5050509150506402540be400816102ca91906105c8565b9250505090565b600054341015610316576040517f08c379a000000000000000000000000000000000000000000000000000000000815260040161030d9061073c565b60405180910390fd5b565b6000819050919050565b61032b81610318565b82525050565b60006020820190506103466000830184610322565b92915050565b600080fd5b61035a81610318565b811461036557600080fd5b50565b60008135905061037781610351565b92915050565b6000602082840312156103935761039261034c565b5b60006103a184828501610368565b91505092915050565b6000815190506103b981610351565b92915050565b6000602082840312156103d5576103d461034c565b5b60006103e3848285016103aa565b91505092915050565b7f4e487b7100000000000000000000000000000000000000000000000000000000600052601160045260246000fd5b600061042682610318565b915061043183610318565b9250817fffffffffffffffffffffffffffffffffffffffffffffffffffffffffffffffff048311821515161561046a576104696103ec565b5b828202905092915050565b7f4e487b7100000000000000000000000000000000000000000000000000000000600052601260045260246000fd5b60006104af82610318565b91506104ba83610318565b9250826104ca576104c9610475565b5b828204905092915050565b600069ffffffffffffffffffff82169050919050565b6104f4816104d5565b81146104ff57600080fd5b50565b600081519050610511816104eb565b92915050565b6000819050919050565b61052a81610517565b811461053557600080fd5b50565b60008151905061054781610521565b92915050565b600080600080600060a086880312156105695761056861034c565b5b600061057788828901610502565b955050602061058888828901610538565b9450506040610599888289016103aa565b93505060606105aa888289016103aa565b92505060806105bb88828901610502565b9150509295509295909350565b60006105d382610517565b91506105de83610517565b9250827f7fffffffffffffffffffffffffffffffffffffffffffffffffffffffffffffff048211600084136000841316161561061d5761061c6103ec565b5b817f8000000000000000000000000000000000000000000000000000000000000000058312600084126000841316161561065a576106596103ec565b5b827f80000000000000000000000000000000000000000000000000000000000000000582126000841360008412161615610697576106966103ec565b5b827f7fffffffffffffffffffffffffffffffffffffffffffffffffffffffffffffff05821260008412600084121616156106d4576106d36103ec565b5b828202905092915050565b600082825260208201905092915050565b7f4469646e27742073656e6420656e6f7567680000000000000000000000000000600082015250565b60006107266012836106df565b9150610731826106f0565b602082019050919050565b6000602082019050818103600083015261075581610719565b905091905056fea26469706673582212202186a0f6ba88268d7f5c95a84c6fb02537be79d26bc39d9c81f01876a9db13cf64736f6c63430008080033",
					"opcodes": "PUSH1 0x80 PUSH1 0x40 MSTORE PUSH1 0x32 PUSH1 0x0 SSTORE CALLVALUE DUP1 ISZERO PUSH2 0x15 JUMPI PUSH1 0x0 DUP1 REVERT JUMPDEST POP PUSH2 0x792 DUP1 PUSH2 0x25 PUSH1 0x0 CODECOPY PUSH1 0x0 RETURN INVALID PUSH1 0x80 PUSH1 0x40 MSTORE PUSH1 0x4 CALLDATASIZE LT PUSH2 0x55 JUMPI PUSH1 0x0 CALLDATALOAD PUSH1 0xE0 SHR DUP1 PUSH4 0xD8E6E2C EQ PUSH2 0x5A JUMPI DUP1 PUSH4 0x3430A88C EQ PUSH2 0x85 JUMPI DUP1 PUSH4 0x3CCFD60B EQ PUSH2 0xB0 JUMPI DUP1 PUSH4 0x6E5B6B28 EQ PUSH2 0xC7 JUMPI DUP1 PUSH4 0x98D5FDCA EQ PUSH2 0x104 JUMPI DUP1 PUSH4 0xB60D4288 EQ PUSH2 0x12F JUMPI JUMPDEST PUSH1 0x0 DUP1 REVERT JUMPDEST CALLVALUE DUP1 ISZERO PUSH2 0x66 JUMPI PUSH1 0x0 DUP1 REVERT JUMPDEST POP PUSH2 0x6F PUSH2 0x139 JUMP JUMPDEST PUSH1 0x40 MLOAD PUSH2 0x7C SWAP2 SWAP1 PUSH2 0x331 JUMP JUMPDEST PUSH1 0x40 MLOAD DUP1 SWAP2 SUB SWAP1 RETURN JUMPDEST CALLVALUE DUP1 ISZERO PUSH2 0x91 JUMPI PUSH1 0x0 DUP1 REVERT JUMPDEST POP PUSH2 0x9A PUSH2 0x1D7 JUMP JUMPDEST PUSH1 0x40 MLOAD PUSH2 0xA7 SWAP2 SWAP1 PUSH2 0x331 JUMP JUMPDEST PUSH1 0x40 MLOAD DUP1 SWAP2 SUB SWAP1 RETURN JUMPDEST CALLVALUE DUP1 ISZERO PUSH2 0xBC JUMPI PUSH1 0x0 DUP1 REVERT JUMPDEST POP PUSH2 0xC5 PUSH2 0x1DD JUMP JUMPDEST STOP JUMPDEST CALLVALUE DUP1 ISZERO PUSH2 0xD3 JUMPI PUSH1 0x0 DUP1 REVERT JUMPDEST POP PUSH2 0xEE PUSH1 0x4 DUP1 CALLDATASIZE SUB DUP2 ADD SWAP1 PUSH2 0xE9 SWAP2 SWAP1 PUSH2 0x37D JUMP JUMPDEST PUSH2 0x1DF JUMP JUMPDEST PUSH1 0x40 MLOAD PUSH2 0xFB SWAP2 SWAP1 PUSH2 0x331 JUMP JUMPDEST PUSH1 0x40 MLOAD DUP1 SWAP2 SUB SWAP1 RETURN JUMPDEST CALLVALUE DUP1 ISZERO PUSH2 0x110 JUMPI PUSH1 0x0 DUP1 REVERT JUMPDEST POP PUSH2 0x119 PUSH2 0x219 JUMP JUMPDEST PUSH1 0x40 MLOAD PUSH2 0x126 SWAP2 SWAP1 PUSH2 0x331 JUMP JUMPDEST PUSH1 0x40 MLOAD DUP1 SWAP2 SUB SWAP1 RETURN JUMPDEST PUSH2 0x137 PUSH2 0x2D1 JUMP JUMPDEST STOP JUMPDEST PUSH1 0x0 DUP1 PUSH20 0x8A753747A1FA494EC906CE90E9F37563A8AF630E SWAP1 POP DUP1 PUSH20 0xFFFFFFFFFFFFFFFFFFFFFFFFFFFFFFFFFFFFFFFF AND PUSH4 0x54FD4D50 PUSH1 0x40 MLOAD DUP2 PUSH4 0xFFFFFFFF AND PUSH1 0xE0 SHL DUP2 MSTORE PUSH1 0x4 ADD PUSH1 0x20 PUSH1 0x40 MLOAD DUP1 DUP4 SUB DUP2 DUP7 DUP1 EXTCODESIZE ISZERO DUP1 ISZERO PUSH2 0x199 JUMPI PUSH1 0x0 DUP1 REVERT JUMPDEST POP GAS STATICCALL ISZERO DUP1 ISZERO PUSH2 0x1AD JUMPI RETURNDATASIZE PUSH1 0x0 DUP1 RETURNDATACOPY RETURNDATASIZE PUSH1 0x0 REVERT JUMPDEST POP POP POP POP PUSH1 0x40 MLOAD RETURNDATASIZE PUSH1 0x1F NOT PUSH1 0x1F DUP3 ADD AND DUP3 ADD DUP1 PUSH1 0x40 MSTORE POP DUP2 ADD SWAP1 PUSH2 0x1D1 SWAP2 SWAP1 PUSH2 0x3BF JUMP JUMPDEST SWAP2 POP POP SWAP1 JUMP JUMPDEST PUSH1 0x0 SLOAD DUP2 JUMP JUMPDEST JUMP JUMPDEST PUSH1 0x0 DUP1 PUSH2 0x1EA PUSH2 0x219 JUMP JUMPDEST SWAP1 POP PUSH1 0x0 PUSH8 0xDE0B6B3A7640000 DUP5 DUP4 PUSH2 0x203 SWAP2 SWAP1 PUSH2 0x41B JUMP JUMPDEST PUSH2 0x20D SWAP2 SWAP1 PUSH2 0x4A4 JUMP JUMPDEST SWAP1 POP DUP1 SWAP3 POP POP POP SWAP2 SWAP1 POP JUMP JUMPDEST PUSH1 0x0 DUP1 PUSH20 0x8A753747A1FA494EC906CE90E9F37563A8AF630E SWAP1 POP PUSH1 0x0 DUP2 PUSH20 0xFFFFFFFFFFFFFFFFFFFFFFFFFFFFFFFFFFFFFFFF AND PUSH4 0xFEAF968C PUSH1 0x40 MLOAD DUP2 PUSH4 0xFFFFFFFF AND PUSH1 0xE0 SHL DUP2 MSTORE PUSH1 0x4 ADD PUSH1 0xA0 PUSH1 0x40 MLOAD DUP1 DUP4 SUB DUP2 DUP7 DUP1 EXTCODESIZE ISZERO DUP1 ISZERO PUSH2 0x27B JUMPI PUSH1 0x0 DUP1 REVERT JUMPDEST POP GAS STATICCALL ISZERO DUP1 ISZERO PUSH2 0x28F JUMPI RETURNDATASIZE PUSH1 0x0 DUP1 RETURNDATACOPY RETURNDATASIZE PUSH1 0x0 REVERT JUMPDEST POP POP POP POP PUSH1 0x40 MLOAD RETURNDATASIZE PUSH1 0x1F NOT PUSH1 0x1F DUP3 ADD AND DUP3 ADD DUP1 PUSH1 0x40 MSTORE POP DUP2 ADD SWAP1 PUSH2 0x2B3 SWAP2 SWAP1 PUSH2 0x54D JUMP JUMPDEST POP POP POP SWAP2 POP POP PUSH5 0x2540BE400 DUP2 PUSH2 0x2CA SWAP2 SWAP1 PUSH2 0x5C8 JUMP JUMPDEST SWAP3 POP POP POP SWAP1 JUMP JUMPDEST PUSH1 0x0 SLOAD CALLVALUE LT ISZERO PUSH2 0x316 JUMPI PUSH1 0x40 MLOAD PUSH32 0x8C379A000000000000000000000000000000000000000000000000000000000 DUP2 MSTORE PUSH1 0x4 ADD PUSH2 0x30D SWAP1 PUSH2 0x73C JUMP JUMPDEST PUSH1 0x40 MLOAD DUP1 SWAP2 SUB SWAP1 REVERT JUMPDEST JUMP JUMPDEST PUSH1 0x0 DUP2 SWAP1 POP SWAP2 SWAP1 POP JUMP JUMPDEST PUSH2 0x32B DUP2 PUSH2 0x318 JUMP JUMPDEST DUP3 MSTORE POP POP JUMP JUMPDEST PUSH1 0x0 PUSH1 0x20 DUP3 ADD SWAP1 POP PUSH2 0x346 PUSH1 0x0 DUP4 ADD DUP5 PUSH2 0x322 JUMP JUMPDEST SWAP3 SWAP2 POP POP JUMP JUMPDEST PUSH1 0x0 DUP1 REVERT JUMPDEST PUSH2 0x35A DUP2 PUSH2 0x318 JUMP JUMPDEST DUP2 EQ PUSH2 0x365 JUMPI PUSH1 0x0 DUP1 REVERT JUMPDEST POP JUMP JUMPDEST PUSH1 0x0 DUP2 CALLDATALOAD SWAP1 POP PUSH2 0x377 DUP2 PUSH2 0x351 JUMP JUMPDEST SWAP3 SWAP2 POP POP JUMP JUMPDEST PUSH1 0x0 PUSH1 0x20 DUP3 DUP5 SUB SLT ISZERO PUSH2 0x393 JUMPI PUSH2 0x392 PUSH2 0x34C JUMP JUMPDEST JUMPDEST PUSH1 0x0 PUSH2 0x3A1 DUP5 DUP3 DUP6 ADD PUSH2 0x368 JUMP JUMPDEST SWAP2 POP POP SWAP3 SWAP2 POP POP JUMP JUMPDEST PUSH1 0x0 DUP2 MLOAD SWAP1 POP PUSH2 0x3B9 DUP2 PUSH2 0x351 JUMP JUMPDEST SWAP3 SWAP2 POP POP JUMP JUMPDEST PUSH1 0x0 PUSH1 0x20 DUP3 DUP5 SUB SLT ISZERO PUSH2 0x3D5 JUMPI PUSH2 0x3D4 PUSH2 0x34C JUMP JUMPDEST JUMPDEST PUSH1 0x0 PUSH2 0x3E3 DUP5 DUP3 DUP6 ADD PUSH2 0x3AA JUMP JUMPDEST SWAP2 POP POP SWAP3 SWAP2 POP POP JUMP JUMPDEST PUSH32 0x4E487B7100000000000000000000000000000000000000000000000000000000 PUSH1 0x0 MSTORE PUSH1 0x11 PUSH1 0x4 MSTORE PUSH1 0x24 PUSH1 0x0 REVERT JUMPDEST PUSH1 0x0 PUSH2 0x426 DUP3 PUSH2 0x318 JUMP JUMPDEST SWAP2 POP PUSH2 0x431 DUP4 PUSH2 0x318 JUMP JUMPDEST SWAP3 POP DUP2 PUSH32 0xFFFFFFFFFFFFFFFFFFFFFFFFFFFFFFFFFFFFFFFFFFFFFFFFFFFFFFFFFFFFFFFF DIV DUP4 GT DUP3 ISZERO ISZERO AND ISZERO PUSH2 0x46A JUMPI PUSH2 0x469 PUSH2 0x3EC JUMP JUMPDEST JUMPDEST DUP3 DUP3 MUL SWAP1 POP SWAP3 SWAP2 POP POP JUMP JUMPDEST PUSH32 0x4E487B7100000000000000000000000000000000000000000000000000000000 PUSH1 0x0 MSTORE PUSH1 0x12 PUSH1 0x4 MSTORE PUSH1 0x24 PUSH1 0x0 REVERT JUMPDEST PUSH1 0x0 PUSH2 0x4AF DUP3 PUSH2 0x318 JUMP JUMPDEST SWAP2 POP PUSH2 0x4BA DUP4 PUSH2 0x318 JUMP JUMPDEST SWAP3 POP DUP3 PUSH2 0x4CA JUMPI PUSH2 0x4C9 PUSH2 0x475 JUMP JUMPDEST JUMPDEST DUP3 DUP3 DIV SWAP1 POP SWAP3 SWAP2 POP POP JUMP JUMPDEST PUSH1 0x0 PUSH10 0xFFFFFFFFFFFFFFFFFFFF DUP3 AND SWAP1 POP SWAP2 SWAP1 POP JUMP JUMPDEST PUSH2 0x4F4 DUP2 PUSH2 0x4D5 JUMP JUMPDEST DUP2 EQ PUSH2 0x4FF JUMPI PUSH1 0x0 DUP1 REVERT JUMPDEST POP JUMP JUMPDEST PUSH1 0x0 DUP2 MLOAD SWAP1 POP PUSH2 0x511 DUP2 PUSH2 0x4EB JUMP JUMPDEST SWAP3 SWAP2 POP POP JUMP JUMPDEST PUSH1 0x0 DUP2 SWAP1 POP SWAP2 SWAP1 POP JUMP JUMPDEST PUSH2 0x52A DUP2 PUSH2 0x517 JUMP JUMPDEST DUP2 EQ PUSH2 0x535 JUMPI PUSH1 0x0 DUP1 REVERT JUMPDEST POP JUMP JUMPDEST PUSH1 0x0 DUP2 MLOAD SWAP1 POP PUSH2 0x547 DUP2 PUSH2 0x521 JUMP JUMPDEST SWAP3 SWAP2 POP POP JUMP JUMPDEST PUSH1 0x0 DUP1 PUSH1 0x0 DUP1 PUSH1 0x0 PUSH1 0xA0 DUP7 DUP9 SUB SLT ISZERO PUSH2 0x569 JUMPI PUSH2 0x568 PUSH2 0x34C JUMP JUMPDEST JUMPDEST PUSH1 0x0 PUSH2 0x577 DUP9 DUP3 DUP10 ADD PUSH2 0x502 JUMP JUMPDEST SWAP6 POP POP PUSH1 0x20 PUSH2 0x588 DUP9 DUP3 DUP10 ADD PUSH2 0x538 JUMP JUMPDEST SWAP5 POP POP PUSH1 0x40 PUSH2 0x599 DUP9 DUP3 DUP10 ADD PUSH2 0x3AA JUMP JUMPDEST SWAP4 POP POP PUSH1 0x60 PUSH2 0x5AA DUP9 DUP3 DUP10 ADD PUSH2 0x3AA JUMP JUMPDEST SWAP3 POP POP PUSH1 0x80 PUSH2 0x5BB DUP9 DUP3 DUP10 ADD PUSH2 0x502 JUMP JUMPDEST SWAP2 POP POP SWAP3 SWAP6 POP SWAP3 SWAP6 SWAP1 SWAP4 POP JUMP JUMPDEST PUSH1 0x0 PUSH2 0x5D3 DUP3 PUSH2 0x517 JUMP JUMPDEST SWAP2 POP PUSH2 0x5DE DUP4 PUSH2 0x517 JUMP JUMPDEST SWAP3 POP DUP3 PUSH32 0x7FFFFFFFFFFFFFFFFFFFFFFFFFFFFFFFFFFFFFFFFFFFFFFFFFFFFFFFFFFFFFFF DIV DUP3 GT PUSH1 0x0 DUP5 SGT PUSH1 0x0 DUP5 SGT AND AND ISZERO PUSH2 0x61D JUMPI PUSH2 0x61C PUSH2 0x3EC JUMP JUMPDEST JUMPDEST DUP2 PUSH32 0x8000000000000000000000000000000000000000000000000000000000000000 SDIV DUP4 SLT PUSH1 0x0 DUP5 SLT PUSH1 0x0 DUP5 SGT AND AND ISZERO PUSH2 0x65A JUMPI PUSH2 0x659 PUSH2 0x3EC JUMP JUMPDEST JUMPDEST DUP3 PUSH32 0x8000000000000000000000000000000000000000000000000000000000000000 SDIV DUP3 SLT PUSH1 0x0 DUP5 SGT PUSH1 0x0 DUP5 SLT AND AND ISZERO PUSH2 0x697 JUMPI PUSH2 0x696 PUSH2 0x3EC JUMP JUMPDEST JUMPDEST DUP3 PUSH32 0x7FFFFFFFFFFFFFFFFFFFFFFFFFFFFFFFFFFFFFFFFFFFFFFFFFFFFFFFFFFFFFFF SDIV DUP3 SLT PUSH1 0x0 DUP5 SLT PUSH1 0x0 DUP5 SLT AND AND ISZERO PUSH2 0x6D4 JUMPI PUSH2 0x6D3 PUSH2 0x3EC JUMP JUMPDEST JUMPDEST DUP3 DUP3 MUL SWAP1 POP SWAP3 SWAP2 POP POP JUMP JUMPDEST PUSH1 0x0 DUP3 DUP3 MSTORE PUSH1 0x20 DUP3 ADD SWAP1 POP SWAP3 SWAP2 POP POP JUMP JUMPDEST PUSH32 0x4469646E27742073656E6420656E6F7567680000000000000000000000000000 PUSH1 0x0 DUP3 ADD MSTORE POP JUMP JUMPDEST PUSH1 0x0 PUSH2 0x726 PUSH1 0x12 DUP4 PUSH2 0x6DF JUMP JUMPDEST SWAP2 POP PUSH2 0x731 DUP3 PUSH2 0x6F0 JUMP JUMPDEST PUSH1 0x20 DUP3 ADD SWAP1 POP SWAP2 SWAP1 POP JUMP JUMPDEST PUSH1 0x0 PUSH1 0x20 DUP3 ADD SWAP1 POP DUP2 DUP2 SUB PUSH1 0x0 DUP4 ADD MSTORE PUSH2 0x755 DUP2 PUSH2 0x719 JUMP JUMPDEST SWAP1 POP SWAP2 SWAP1 POP JUMP INVALID LOG2 PUSH5 0x6970667358 0x22 SLT KECCAK256 0x21 DUP7 LOG0 0xF6 0xBA DUP9 0x26 DUP14 PUSH32 0x5C95A84C6FB02537BE79D26BC39D9C81F01876A9DB13CF64736F6C6343000808 STOP CALLER "
				},
				"gasEstimates": {
					"creation": {
						"codeDepositCost": "387600",
						"executionCost": "22530",
						"totalCost": "410130"
					},
					"external": {
						"fund()": "2622",
						"getConversionRate(uint256)": "infinite",
						"getPrice()": "infinite",
						"getVersion()": "infinite",
						"minimumUSD()": "2429",
						"withdraw()": "166"
					}
				},
				"methodIdentifiers": {
					"fund()": "b60d4288",
					"getConversionRate(uint256)": "6e5b6b28",
					"getPrice()": "98d5fdca",
					"getVersion()": "0d8e6e2c",
					"minimumUSD()": "3430a88c",
					"withdraw()": "3ccfd60b"
				}
			},
			"storageLayout": {
				"storage": [
					{
						"astId": 51,
						"contract": "contracts/FundME.sol:FundMe",
						"label": "minimumUSD",
						"offset": 0,
						"slot": "0",
						"type": "t_uint256"
					}
				],
				"types": {
					"t_uint256": {
						"encoding": "inplace",
						"label": "uint256",
						"numberOfBytes": "32"
					}
				}
			},
			"userdoc": {
				"kind": "user",
				"methods": {},
				"version": 1
			}
		}
	}
}